{
  "_format": "hh-sol-artifact-1",
  "contractName": "PermissionedToken",
  "sourceName": "contracts/PermissionedToken.sol",
  "abi": [
    {
      "inputs": [
        {
          "internalType": "string",
          "name": "name",
          "type": "string"
        },
        {
          "internalType": "string",
          "name": "symbol",
          "type": "string"
        },
        {
          "internalType": "uint256",
          "name": "initialSupply",
          "type": "uint256"
        }
      ],
      "stateMutability": "nonpayable",
      "type": "constructor"
    },
    {
      "anonymous": false,
      "inputs": [
        {
          "indexed": true,
          "internalType": "address",
          "name": "owner",
          "type": "address"
        },
        {
          "indexed": true,
          "internalType": "address",
          "name": "spender",
          "type": "address"
        },
        {
          "indexed": false,
          "internalType": "uint256",
          "name": "value",
          "type": "uint256"
        }
      ],
      "name": "Approval",
      "type": "event"
    },
    {
      "anonymous": false,
      "inputs": [
        {
          "indexed": true,
          "internalType": "address",
          "name": "previousOwner",
          "type": "address"
        },
        {
          "indexed": true,
          "internalType": "address",
          "name": "newOwner",
          "type": "address"
        }
      ],
      "name": "OwnershipTransferred",
      "type": "event"
    },
    {
      "anonymous": false,
      "inputs": [
        {
          "indexed": true,
          "internalType": "address",
          "name": "from",
          "type": "address"
        },
        {
          "indexed": true,
          "internalType": "address",
          "name": "to",
          "type": "address"
        },
        {
          "indexed": false,
          "internalType": "uint256",
          "name": "value",
          "type": "uint256"
        }
      ],
      "name": "Transfer",
      "type": "event"
    },
    {
      "inputs": [
        {
          "internalType": "address",
          "name": "owner",
          "type": "address"
        },
        {
          "internalType": "address",
          "name": "spender",
          "type": "address"
        }
      ],
      "name": "allowance",
      "outputs": [
        {
          "internalType": "uint256",
          "name": "",
          "type": "uint256"
        }
      ],
      "stateMutability": "view",
      "type": "function"
    },
    {
      "inputs": [
        {
          "internalType": "address",
          "name": "spender",
          "type": "address"
        },
        {
          "internalType": "uint256",
          "name": "amount",
          "type": "uint256"
        }
      ],
      "name": "approve",
      "outputs": [
        {
          "internalType": "bool",
          "name": "",
          "type": "bool"
        }
      ],
      "stateMutability": "nonpayable",
      "type": "function"
    },
    {
      "inputs": [
        {
          "internalType": "address",
          "name": "account",
          "type": "address"
        }
      ],
      "name": "balanceOf",
      "outputs": [
        {
          "internalType": "uint256",
          "name": "",
          "type": "uint256"
        }
      ],
      "stateMutability": "view",
      "type": "function"
    },
    {
      "inputs": [],
      "name": "decimals",
      "outputs": [
        {
          "internalType": "uint8",
          "name": "",
          "type": "uint8"
        }
      ],
      "stateMutability": "view",
      "type": "function"
    },
    {
      "inputs": [
        {
          "internalType": "address",
          "name": "spender",
          "type": "address"
        },
        {
          "internalType": "uint256",
          "name": "subtractedValue",
          "type": "uint256"
        }
      ],
      "name": "decreaseAllowance",
      "outputs": [
        {
          "internalType": "bool",
          "name": "",
          "type": "bool"
        }
      ],
      "stateMutability": "nonpayable",
      "type": "function"
    },
    {
      "inputs": [
        {
          "internalType": "address",
          "name": "spender",
          "type": "address"
        },
        {
          "internalType": "uint256",
          "name": "addedValue",
          "type": "uint256"
        }
      ],
      "name": "increaseAllowance",
      "outputs": [
        {
          "internalType": "bool",
          "name": "",
          "type": "bool"
        }
      ],
      "stateMutability": "nonpayable",
      "type": "function"
    },
    {
      "inputs": [],
      "name": "name",
      "outputs": [
        {
          "internalType": "string",
          "name": "",
          "type": "string"
        }
      ],
      "stateMutability": "view",
      "type": "function"
    },
    {
      "inputs": [],
      "name": "owner",
      "outputs": [
        {
          "internalType": "address",
          "name": "",
          "type": "address"
        }
      ],
      "stateMutability": "view",
      "type": "function"
    },
    {
      "inputs": [],
      "name": "renounceOwnership",
      "outputs": [],
      "stateMutability": "nonpayable",
      "type": "function"
    },
    {
      "inputs": [
        {
          "internalType": "address",
          "name": "registryAddress",
          "type": "address"
        }
      ],
      "name": "setVerificationRegistry",
      "outputs": [],
      "stateMutability": "nonpayable",
      "type": "function"
    },
    {
      "inputs": [],
      "name": "symbol",
      "outputs": [
        {
          "internalType": "string",
          "name": "",
          "type": "string"
        }
      ],
      "stateMutability": "view",
      "type": "function"
    },
    {
      "inputs": [],
      "name": "totalSupply",
      "outputs": [
        {
          "internalType": "uint256",
          "name": "",
          "type": "uint256"
        }
      ],
      "stateMutability": "view",
      "type": "function"
    },
    {
      "inputs": [
        {
          "internalType": "address",
          "name": "to",
          "type": "address"
        },
        {
          "internalType": "uint256",
          "name": "amount",
          "type": "uint256"
        }
      ],
      "name": "transfer",
      "outputs": [
        {
          "internalType": "bool",
          "name": "",
          "type": "bool"
        }
      ],
      "stateMutability": "nonpayable",
      "type": "function"
    },
    {
      "inputs": [
        {
          "internalType": "address",
          "name": "from",
          "type": "address"
        },
        {
          "internalType": "address",
          "name": "to",
          "type": "address"
        },
        {
          "internalType": "uint256",
          "name": "amount",
          "type": "uint256"
        }
      ],
      "name": "transferFrom",
      "outputs": [
        {
          "internalType": "bool",
          "name": "",
          "type": "bool"
        }
      ],
      "stateMutability": "nonpayable",
      "type": "function"
    },
    {
      "inputs": [
        {
          "internalType": "address",
          "name": "newOwner",
          "type": "address"
        }
      ],
      "name": "transferOwnership",
      "outputs": [],
      "stateMutability": "nonpayable",
      "type": "function"
    }
  ],
  "bytecode": "0x60806040523480156200001157600080fd5b50604051620025c2380380620025c2833981810160405281019062000037919062000649565b8282620000596200004d620000a860201b60201c565b620000b060201b60201c565b816004908051906020019062000071929190620004cd565b5080600590805190602001906200008a929190620004cd565b5050506200009f33826200017460201b60201c565b50505062000b5a565b600033905090565b60008060009054906101000a900473ffffffffffffffffffffffffffffffffffffffff169050816000806101000a81548173ffffffffffffffffffffffffffffffffffffffff021916908373ffffffffffffffffffffffffffffffffffffffff1602179055508173ffffffffffffffffffffffffffffffffffffffff168173ffffffffffffffffffffffffffffffffffffffff167f8be0079c531659141344cd1fd0a4f28419497f9722a3daafe3b4186f6b6457e060405160405180910390a35050565b600073ffffffffffffffffffffffffffffffffffffffff168273ffffffffffffffffffffffffffffffffffffffff161415620001e7576040517f08c379a0000000000000000000000000000000000000000000000000000000008152600401620001de90620007c9565b60405180910390fd5b620001fb60008383620002ee60201b60201c565b80600360008282546200020f919062000878565b9250508190555080600160008473ffffffffffffffffffffffffffffffffffffffff1673ffffffffffffffffffffffffffffffffffffffff168152602001908152602001600020600082825462000267919062000878565b925050819055508173ffffffffffffffffffffffffffffffffffffffff16600073ffffffffffffffffffffffffffffffffffffffff167fddf252ad1be2c89b69c2b068fc378daa952ba7f163c4a11628f55a4df523b3ef83604051620002ce9190620007eb565b60405180910390a3620002ea600083836200040960201b60201c565b5050565b620003068383836200040e60201b620008131760201c565b600073ffffffffffffffffffffffffffffffffffffffff16600660009054906101000a900473ffffffffffffffffffffffffffffffffffffffff1673ffffffffffffffffffffffffffffffffffffffff161462000404576200036e836200041360201b60201c565b620003b0576040517f08c379a0000000000000000000000000000000000000000000000000000000008152600401620003a790620007a7565b60405180910390fd5b620003c1826200041360201b60201c565b62000403576040517f08c379a0000000000000000000000000000000000000000000000000000000008152600401620003fa9062000785565b60405180910390fd5b5b505050565b505050565b505050565b6000600760009054906101000a900473ffffffffffffffffffffffffffffffffffffffff1673ffffffffffffffffffffffffffffffffffffffff1663b9209e33836040518263ffffffff1660e01b815260040162000472919062000768565b60206040518083038186803b1580156200048b57600080fd5b505afa158015620004a0573d6000803e3d6000fd5b505050506040513d601f19601f82011682018060405250810190620004c691906200061d565b9050919050565b828054620004db9062000955565b90600052602060002090601f016020900481019282620004ff57600085556200054b565b82601f106200051a57805160ff19168380011785556200054b565b828001600101855582156200054b579182015b828111156200054a5782518255916020019190600101906200052d565b5b5090506200055a91906200055e565b5090565b5b80821115620005795760008160009055506001016200055f565b5090565b6000620005946200058e8462000831565b62000808565b905082815260208101848484011115620005ad57600080fd5b620005ba8482856200091f565b509392505050565b600081519050620005d38162000b26565b92915050565b600082601f830112620005eb57600080fd5b8151620005fd8482602086016200057d565b91505092915050565b600081519050620006178162000b40565b92915050565b6000602082840312156200063057600080fd5b60006200064084828501620005c2565b91505092915050565b6000806000606084860312156200065f57600080fd5b600084015167ffffffffffffffff8111156200067a57600080fd5b6200068886828701620005d9565b935050602084015167ffffffffffffffff811115620006a657600080fd5b620006b486828701620005d9565b9250506040620006c78682870162000606565b9150509250925092565b620006dc81620008d5565b82525050565b6000620006f1602c8362000867565b9150620006fe8262000a5f565b604082019050919050565b60006200071860298362000867565b9150620007258262000aae565b604082019050919050565b60006200073f601f8362000867565b91506200074c8262000afd565b602082019050919050565b620007628162000915565b82525050565b60006020820190506200077f6000830184620006d1565b92915050565b60006020820190508181036000830152620007a081620006e2565b9050919050565b60006020820190508181036000830152620007c28162000709565b9050919050565b60006020820190508181036000830152620007e48162000730565b9050919050565b600060208201905062000802600083018462000757565b92915050565b60006200081462000827565b90506200082282826200098b565b919050565b6000604051905090565b600067ffffffffffffffff8211156200084f576200084e62000a1f565b5b6200085a8262000a4e565b9050602081019050919050565b600082825260208201905092915050565b6000620008858262000915565b9150620008928362000915565b9250827fffffffffffffffffffffffffffffffffffffffffffffffffffffffffffffffff03821115620008ca57620008c9620009c1565b5b828201905092915050565b6000620008e282620008f5565b9050919050565b60008115159050919050565b600073ffffffffffffffffffffffffffffffffffffffff82169050919050565b6000819050919050565b60005b838110156200093f57808201518184015260208101905062000922565b838111156200094f576000848401525b50505050565b600060028204905060018216806200096e57607f821691505b60208210811415620009855762000984620009f0565b5b50919050565b620009968262000a4e565b810181811067ffffffffffffffff82111715620009b857620009b762000a1f565b5b80604052505050565b7f4e487b7100000000000000000000000000000000000000000000000000000000600052601160045260246000fd5b7f4e487b7100000000000000000000000000000000000000000000000000000000600052602260045260246000fd5b7f4e487b7100000000000000000000000000000000000000000000000000000000600052604160045260246000fd5b6000601f19601f8301169050919050565b7f5065726d697373696f6e6564546f6b656e3a20526563697069656e742069732060008201527f6e6f742076657269666965640000000000000000000000000000000000000000602082015250565b7f5065726d697373696f6e6564546f6b656e3a2053656e646572206973206e6f7460008201527f2076657269666965640000000000000000000000000000000000000000000000602082015250565b7f45524332303a206d696e7420746f20746865207a65726f206164647265737300600082015250565b62000b3181620008e9565b811462000b3d57600080fd5b50565b62000b4b8162000915565b811462000b5757600080fd5b50565b611a588062000b6a6000396000f3fe608060405234801561001057600080fd5b50600436106100f55760003560e01c8063715018a611610097578063a457c2d711610066578063a457c2d714610276578063a9059cbb146102a6578063dd62ed3e146102d6578063f2fde38b14610306576100f5565b8063715018a61461021457806387664f911461021e5780638da5cb5b1461023a57806395d89b4114610258576100f5565b806323b872dd116100d357806323b872dd14610166578063313ce5671461019657806339509351146101b457806370a08231146101e4576100f5565b806306fdde03146100fa578063095ea7b31461011857806318160ddd14610148575b600080fd5b610102610322565b60405161010f9190611371565b60405180910390f35b610132600480360381019061012d91906110e0565b6103b4565b60405161013f9190611356565b60405180910390f35b6101506103d7565b60405161015d91906114f3565b60405180910390f35b610180600480360381019061017b9190611091565b6103e1565b60405161018d9190611356565b60405180910390f35b61019e610410565b6040516101ab919061150e565b60405180910390f35b6101ce60048036038101906101c991906110e0565b610419565b6040516101db9190611356565b60405180910390f35b6101fe60048036038101906101f9919061102c565b610450565b60405161020b91906114f3565b60405180910390f35b61021c610499565b005b6102386004803603810190610233919061102c565b6104ad565b005b6102426105b3565b60405161024f919061133b565b60405180910390f35b6102606105dc565b60405161026d9190611371565b60405180910390f35b610290600480360381019061028b91906110e0565b61066e565b60405161029d9190611356565b60405180910390f35b6102c060048036038101906102bb91906110e0565b6106e5565b6040516102cd9190611356565b60405180910390f35b6102f060048036038101906102eb9190611055565b610708565b6040516102fd91906114f3565b60405180910390f35b610320600480360381019061031b919061102c565b61078f565b005b60606004805461033190611623565b80601f016020809104026020016040519081016040528092919081815260200182805461035d90611623565b80156103aa5780601f1061037f576101008083540402835291602001916103aa565b820191906000526020600020905b81548152906001019060200180831161038d57829003601f168201915b5050505050905090565b6000806103bf610818565b90506103cc818585610820565b600191505092915050565b6000600354905090565b6000806103ec610818565b90506103f98582856109eb565b610404858585610a77565b60019150509392505050565b60006012905090565b600080610424610818565b90506104458185856104368589610708565b6104409190611545565b610820565b600191505092915050565b6000600160008373ffffffffffffffffffffffffffffffffffffffff1673ffffffffffffffffffffffffffffffffffffffff168152602001908152602001600020549050919050565b6104a1610cfb565b6104ab6000610d79565b565b6104b5610cfb565b80600660006101000a81548173ffffffffffffffffffffffffffffffffffffffff021916908373ffffffffffffffffffffffffffffffffffffffff160217905550600073ffffffffffffffffffffffffffffffffffffffff16600660009054906101000a900473ffffffffffffffffffffffffffffffffffffffff1673ffffffffffffffffffffffffffffffffffffffff16146105b057600660009054906101000a900473ffffffffffffffffffffffffffffffffffffffff16600760006101000a81548173ffffffffffffffffffffffffffffffffffffffff021916908373ffffffffffffffffffffffffffffffffffffffff1602179055505b50565b60008060009054906101000a900473ffffffffffffffffffffffffffffffffffffffff16905090565b6060600580546105eb90611623565b80601f016020809104026020016040519081016040528092919081815260200182805461061790611623565b80156106645780601f1061063957610100808354040283529160200191610664565b820191906000526020600020905b81548152906001019060200180831161064757829003601f168201915b5050505050905090565b600080610679610818565b905060006106878286610708565b9050838110156106cc576040517f08c379a00000000000000000000000000000000000000000000000000000000081526004016106c3906114d3565b60405180910390fd5b6106d98286868403610820565b60019250505092915050565b6000806106f0610818565b90506106fd818585610a77565b600191505092915050565b6000600260008473ffffffffffffffffffffffffffffffffffffffff1673ffffffffffffffffffffffffffffffffffffffff16815260200190815260200160002060008373ffffffffffffffffffffffffffffffffffffffff1673ffffffffffffffffffffffffffffffffffffffff16815260200190815260200160002054905092915050565b610797610cfb565b600073ffffffffffffffffffffffffffffffffffffffff168173ffffffffffffffffffffffffffffffffffffffff161415610807576040517f08c379a00000000000000000000000000000000000000000000000000000000081526004016107fe906113d3565b60405180910390fd5b61081081610d79565b50565b505050565b600033905090565b600073ffffffffffffffffffffffffffffffffffffffff168373ffffffffffffffffffffffffffffffffffffffff161415610890576040517f08c379a0000000000000000000000000000000000000000000000000000000008152600401610887906114b3565b60405180910390fd5b600073ffffffffffffffffffffffffffffffffffffffff168273ffffffffffffffffffffffffffffffffffffffff161415610900576040517f08c379a00000000000000000000000000000000000000000000000000000000081526004016108f7906113f3565b60405180910390fd5b80600260008573ffffffffffffffffffffffffffffffffffffffff1673ffffffffffffffffffffffffffffffffffffffff16815260200190815260200160002060008473ffffffffffffffffffffffffffffffffffffffff1673ffffffffffffffffffffffffffffffffffffffff168152602001908152602001600020819055508173ffffffffffffffffffffffffffffffffffffffff168373ffffffffffffffffffffffffffffffffffffffff167f8c5be1e5ebec7d5bd14f71427d1e84f3dd0314c0f7b2291e5b200ac8c7c3b925836040516109de91906114f3565b60405180910390a3505050565b60006109f78484610708565b90507fffffffffffffffffffffffffffffffffffffffffffffffffffffffffffffffff8114610a715781811015610a63576040517f08c379a0000000000000000000000000000000000000000000000000000000008152600401610a5a90611413565b60405180910390fd5b610a708484848403610820565b5b50505050565b600073ffffffffffffffffffffffffffffffffffffffff168373ffffffffffffffffffffffffffffffffffffffff161415610ae7576040517f08c379a0000000000000000000000000000000000000000000000000000000008152600401610ade90611493565b60405180910390fd5b600073ffffffffffffffffffffffffffffffffffffffff168273ffffffffffffffffffffffffffffffffffffffff161415610b57576040517f08c379a0000000000000000000000000000000000000000000000000000000008152600401610b4e90611393565b60405180910390fd5b610b62838383610e3d565b6000600160008573ffffffffffffffffffffffffffffffffffffffff1673ffffffffffffffffffffffffffffffffffffffff16815260200190815260200160002054905081811015610be9576040517f08c379a0000000000000000000000000000000000000000000000000000000008152600401610be090611433565b60405180910390fd5b818103600160008673ffffffffffffffffffffffffffffffffffffffff1673ffffffffffffffffffffffffffffffffffffffff1681526020019081526020016000208190555081600160008573ffffffffffffffffffffffffffffffffffffffff1673ffffffffffffffffffffffffffffffffffffffff1681526020019081526020016000206000828254610c7e9190611545565b925050819055508273ffffffffffffffffffffffffffffffffffffffff168473ffffffffffffffffffffffffffffffffffffffff167fddf252ad1be2c89b69c2b068fc378daa952ba7f163c4a11628f55a4df523b3ef84604051610ce291906114f3565b60405180910390a3610cf5848484610f34565b50505050565b610d03610818565b73ffffffffffffffffffffffffffffffffffffffff16610d216105b3565b73ffffffffffffffffffffffffffffffffffffffff1614610d77576040517f08c379a0000000000000000000000000000000000000000000000000000000008152600401610d6e90611473565b60405180910390fd5b565b60008060009054906101000a900473ffffffffffffffffffffffffffffffffffffffff169050816000806101000a81548173ffffffffffffffffffffffffffffffffffffffff021916908373ffffffffffffffffffffffffffffffffffffffff1602179055508173ffffffffffffffffffffffffffffffffffffffff168173ffffffffffffffffffffffffffffffffffffffff167f8be0079c531659141344cd1fd0a4f28419497f9722a3daafe3b4186f6b6457e060405160405180910390a35050565b610e48838383610813565b600073ffffffffffffffffffffffffffffffffffffffff16600660009054906101000a900473ffffffffffffffffffffffffffffffffffffffff1673ffffffffffffffffffffffffffffffffffffffff1614610f2f57610ea783610f39565b610ee6576040517f08c379a0000000000000000000000000000000000000000000000000000000008152600401610edd90611453565b60405180910390fd5b610eef82610f39565b610f2e576040517f08c379a0000000000000000000000000000000000000000000000000000000008152600401610f25906113b3565b60405180910390fd5b5b505050565b505050565b6000600760009054906101000a900473ffffffffffffffffffffffffffffffffffffffff1673ffffffffffffffffffffffffffffffffffffffff1663b9209e33836040518263ffffffff1660e01b8152600401610f96919061133b565b60206040518083038186803b158015610fae57600080fd5b505afa158015610fc2573d6000803e3d6000fd5b505050506040513d601f19601f82011682018060405250810190610fe6919061111c565b9050919050565b600081359050610ffc816119dd565b92915050565b600081519050611011816119f4565b92915050565b60008135905061102681611a0b565b92915050565b60006020828403121561103e57600080fd5b600061104c84828501610fed565b91505092915050565b6000806040838503121561106857600080fd5b600061107685828601610fed565b925050602061108785828601610fed565b9150509250929050565b6000806000606084860312156110a657600080fd5b60006110b486828701610fed565b93505060206110c586828701610fed565b92505060406110d686828701611017565b9150509250925092565b600080604083850312156110f357600080fd5b600061110185828601610fed565b925050602061111285828601611017565b9150509250929050565b60006020828403121561112e57600080fd5b600061113c84828501611002565b91505092915050565b61114e8161159b565b82525050565b61115d816115ad565b82525050565b600061116e82611529565b6111788185611534565b93506111888185602086016115f0565b611191816116b3565b840191505092915050565b60006111a9602383611534565b91506111b4826116c4565b604082019050919050565b60006111cc602c83611534565b91506111d782611713565b604082019050919050565b60006111ef602683611534565b91506111fa82611762565b604082019050919050565b6000611212602283611534565b915061121d826117b1565b604082019050919050565b6000611235601d83611534565b915061124082611800565b602082019050919050565b6000611258602683611534565b915061126382611829565b604082019050919050565b600061127b602983611534565b915061128682611878565b604082019050919050565b600061129e602083611534565b91506112a9826118c7565b602082019050919050565b60006112c1602583611534565b91506112cc826118f0565b604082019050919050565b60006112e4602483611534565b91506112ef8261193f565b604082019050919050565b6000611307602583611534565b91506113128261198e565b604082019050919050565b611326816115d9565b82525050565b611335816115e3565b82525050565b60006020820190506113506000830184611145565b92915050565b600060208201905061136b6000830184611154565b92915050565b6000602082019050818103600083015261138b8184611163565b905092915050565b600060208201905081810360008301526113ac8161119c565b9050919050565b600060208201905081810360008301526113cc816111bf565b9050919050565b600060208201905081810360008301526113ec816111e2565b9050919050565b6000602082019050818103600083015261140c81611205565b9050919050565b6000602082019050818103600083015261142c81611228565b9050919050565b6000602082019050818103600083015261144c8161124b565b9050919050565b6000602082019050818103600083015261146c8161126e565b9050919050565b6000602082019050818103600083015261148c81611291565b9050919050565b600060208201905081810360008301526114ac816112b4565b9050919050565b600060208201905081810360008301526114cc816112d7565b9050919050565b600060208201905081810360008301526114ec816112fa565b9050919050565b6000602082019050611508600083018461131d565b92915050565b6000602082019050611523600083018461132c565b92915050565b600081519050919050565b600082825260208201905092915050565b6000611550826115d9565b915061155b836115d9565b9250827fffffffffffffffffffffffffffffffffffffffffffffffffffffffffffffffff038211156115905761158f611655565b5b828201905092915050565b60006115a6826115b9565b9050919050565b60008115159050919050565b600073ffffffffffffffffffffffffffffffffffffffff82169050919050565b6000819050919050565b600060ff82169050919050565b60005b8381101561160e5780820151818401526020810190506115f3565b8381111561161d576000848401525b50505050565b6000600282049050600182168061163b57607f821691505b6020821081141561164f5761164e611684565b5b50919050565b7f4e487b7100000000000000000000000000000000000000000000000000000000600052601160045260246000fd5b7f4e487b7100000000000000000000000000000000000000000000000000000000600052602260045260246000fd5b6000601f19601f8301169050919050565b7f45524332303a207472616e7366657220746f20746865207a65726f206164647260008201527f6573730000000000000000000000000000000000000000000000000000000000602082015250565b7f5065726d697373696f6e6564546f6b656e3a20526563697069656e742069732060008201527f6e6f742076657269666965640000000000000000000000000000000000000000602082015250565b7f4f776e61626c653a206e6577206f776e657220697320746865207a65726f206160008201527f6464726573730000000000000000000000000000000000000000000000000000602082015250565b7f45524332303a20617070726f766520746f20746865207a65726f20616464726560008201527f7373000000000000000000000000000000000000000000000000000000000000602082015250565b7f45524332303a20696e73756666696369656e7420616c6c6f77616e6365000000600082015250565b7f45524332303a207472616e7366657220616d6f756e742065786365656473206260008201527f616c616e63650000000000000000000000000000000000000000000000000000602082015250565b7f5065726d697373696f6e6564546f6b656e3a2053656e646572206973206e6f7460008201527f2076657269666965640000000000000000000000000000000000000000000000602082015250565b7f4f776e61626c653a2063616c6c6572206973206e6f7420746865206f776e6572600082015250565b7f45524332303a207472616e736665722066726f6d20746865207a65726f20616460008201527f6472657373000000000000000000000000000000000000000000000000000000602082015250565b7f45524332303a20617070726f76652066726f6d20746865207a65726f2061646460008201527f7265737300000000000000000000000000000000000000000000000000000000602082015250565b7f45524332303a2064656372656173656420616c6c6f77616e63652062656c6f7760008201527f207a65726f000000000000000000000000000000000000000000000000000000602082015250565b6119e68161159b565b81146119f157600080fd5b50565b6119fd816115ad565b8114611a0857600080fd5b50565b611a14816115d9565b8114611a1f57600080fd5b5056fea26469706673582212209f68d8d72d91d88e4cd5c962d72cb62005074f93ca56ad744f6860ba605a3c9364736f6c63430008040033",
  "linkReferences": {},
  "deployedLinkReferences": {}
}