{
  "_format": "hh-sol-artifact-1",
  "contractName": "VerificationRegistry",
  "sourceName": "contracts/VerificationRegistry.sol",
  "abi": [
    {
      "anonymous": false,
      "inputs": [
        {
          "indexed": true,
          "internalType": "address",
          "name": "previousOwner",
          "type": "address"
        },
        {
          "indexed": true,
          "internalType": "address",
          "name": "newOwner",
          "type": "address"
        }
      ],
      "name": "OwnershipTransferred",
      "type": "event"
    },
    {
      "anonymous": false,
      "inputs": [
        {
          "indexed": false,
          "internalType": "bytes32",
          "name": "uuid",
          "type": "bytes32"
        }
      ],
      "name": "VerificationRemoved",
      "type": "event"
    },
    {
      "anonymous": false,
      "inputs": [
        {
          "components": [
            {
              "internalType": "bytes32",
              "name": "uuid",
              "type": "bytes32"
            },
            {
              "internalType": "address",
              "name": "verifier",
              "type": "address"
            },
            {
              "internalType": "address",
              "name": "subject",
              "type": "address"
            },
            {
              "internalType": "uint256",
              "name": "entryTime",
              "type": "uint256"
            },
            {
              "internalType": "uint256",
              "name": "expirationTime",
              "type": "uint256"
            },
            {
              "internalType": "bool",
              "name": "revoked",
              "type": "bool"
            }
          ],
          "indexed": false,
          "internalType": "struct VerificationRecord",
          "name": "verificationRecord",
          "type": "tuple"
        }
      ],
      "name": "VerificationResultConfirmed",
      "type": "event"
    },
    {
      "anonymous": false,
      "inputs": [
        {
          "indexed": false,
          "internalType": "bytes32",
          "name": "uuid",
          "type": "bytes32"
        }
      ],
      "name": "VerificationRevoked",
      "type": "event"
    },
    {
      "anonymous": false,
      "inputs": [
        {
          "indexed": false,
          "internalType": "address",
          "name": "verifier",
          "type": "address"
        },
        {
          "components": [
            {
              "internalType": "bytes32",
              "name": "name",
              "type": "bytes32"
            },
            {
              "internalType": "string",
              "name": "did",
              "type": "string"
            },
            {
              "internalType": "string",
              "name": "url",
              "type": "string"
            },
            {
              "internalType": "address",
              "name": "signer",
              "type": "address"
            }
          ],
          "indexed": false,
          "internalType": "struct VerifierInfo",
          "name": "verifierInfo",
          "type": "tuple"
        }
      ],
      "name": "VerifierAdded",
      "type": "event"
    },
    {
      "anonymous": false,
      "inputs": [
        {
          "indexed": false,
          "internalType": "address",
          "name": "verifier",
          "type": "address"
        }
      ],
      "name": "VerifierRemoved",
      "type": "event"
    },
    {
      "anonymous": false,
      "inputs": [
        {
          "indexed": false,
          "internalType": "address",
          "name": "verifier",
          "type": "address"
        },
        {
          "components": [
            {
              "internalType": "bytes32",
              "name": "name",
              "type": "bytes32"
            },
            {
              "internalType": "string",
              "name": "did",
              "type": "string"
            },
            {
              "internalType": "string",
              "name": "url",
              "type": "string"
            },
            {
              "internalType": "address",
              "name": "signer",
              "type": "address"
            }
          ],
          "indexed": false,
          "internalType": "struct VerifierInfo",
          "name": "verifierInfo",
          "type": "tuple"
        }
      ],
      "name": "VerifierUpdated",
      "type": "event"
    },
    {
      "inputs": [
        {
          "internalType": "address",
          "name": "verifierAddress",
          "type": "address"
        },
        {
          "components": [
            {
              "internalType": "bytes32",
              "name": "name",
              "type": "bytes32"
            },
            {
              "internalType": "string",
              "name": "did",
              "type": "string"
            },
            {
              "internalType": "string",
              "name": "url",
              "type": "string"
            },
            {
              "internalType": "address",
              "name": "signer",
              "type": "address"
            }
          ],
          "internalType": "struct VerifierInfo",
          "name": "verifierInfo",
          "type": "tuple"
        }
      ],
      "name": "addVerifier",
      "outputs": [],
      "stateMutability": "nonpayable",
      "type": "function"
    },
    {
      "inputs": [
        {
          "internalType": "bytes32",
          "name": "uuid",
          "type": "bytes32"
        }
      ],
      "name": "getVerification",
      "outputs": [
        {
          "components": [
            {
              "internalType": "bytes32",
              "name": "uuid",
              "type": "bytes32"
            },
            {
              "internalType": "address",
              "name": "verifier",
              "type": "address"
            },
            {
              "internalType": "address",
              "name": "subject",
              "type": "address"
            },
            {
              "internalType": "uint256",
              "name": "entryTime",
              "type": "uint256"
            },
            {
              "internalType": "uint256",
              "name": "expirationTime",
              "type": "uint256"
            },
            {
              "internalType": "bool",
              "name": "revoked",
              "type": "bool"
            }
          ],
          "internalType": "struct VerificationRecord",
          "name": "",
          "type": "tuple"
        }
      ],
      "stateMutability": "view",
      "type": "function"
    },
    {
      "inputs": [],
      "name": "getVerificationCount",
      "outputs": [
        {
          "internalType": "uint256",
          "name": "",
          "type": "uint256"
        }
      ],
      "stateMutability": "view",
      "type": "function"
    },
    {
      "inputs": [
        {
          "internalType": "address",
          "name": "subject",
          "type": "address"
        }
      ],
      "name": "getVerificationsForSubject",
      "outputs": [
        {
          "components": [
            {
              "internalType": "bytes32",
              "name": "uuid",
              "type": "bytes32"
            },
            {
              "internalType": "address",
              "name": "verifier",
              "type": "address"
            },
            {
              "internalType": "address",
              "name": "subject",
              "type": "address"
            },
            {
              "internalType": "uint256",
              "name": "entryTime",
              "type": "uint256"
            },
            {
              "internalType": "uint256",
              "name": "expirationTime",
              "type": "uint256"
            },
            {
              "internalType": "bool",
              "name": "revoked",
              "type": "bool"
            }
          ],
          "internalType": "struct VerificationRecord[]",
          "name": "",
          "type": "tuple[]"
        }
      ],
      "stateMutability": "view",
      "type": "function"
    },
    {
      "inputs": [
        {
          "internalType": "address",
          "name": "verifier",
          "type": "address"
        }
      ],
      "name": "getVerificationsForVerifier",
      "outputs": [
        {
          "components": [
            {
              "internalType": "bytes32",
              "name": "uuid",
              "type": "bytes32"
            },
            {
              "internalType": "address",
              "name": "verifier",
              "type": "address"
            },
            {
              "internalType": "address",
              "name": "subject",
              "type": "address"
            },
            {
              "internalType": "uint256",
              "name": "entryTime",
              "type": "uint256"
            },
            {
              "internalType": "uint256",
              "name": "expirationTime",
              "type": "uint256"
            },
            {
              "internalType": "bool",
              "name": "revoked",
              "type": "bool"
            }
          ],
          "internalType": "struct VerificationRecord[]",
          "name": "",
          "type": "tuple[]"
        }
      ],
      "stateMutability": "view",
      "type": "function"
    },
    {
      "inputs": [
        {
          "internalType": "address",
          "name": "verifierAddress",
          "type": "address"
        }
      ],
      "name": "getVerifier",
      "outputs": [
        {
          "components": [
            {
              "internalType": "bytes32",
              "name": "name",
              "type": "bytes32"
            },
            {
              "internalType": "string",
              "name": "did",
              "type": "string"
            },
            {
              "internalType": "string",
              "name": "url",
              "type": "string"
            },
            {
              "internalType": "address",
              "name": "signer",
              "type": "address"
            }
          ],
          "internalType": "struct VerifierInfo",
          "name": "",
          "type": "tuple"
        }
      ],
      "stateMutability": "view",
      "type": "function"
    },
    {
      "inputs": [],
      "name": "getVerifierCount",
      "outputs": [
        {
          "internalType": "uint256",
          "name": "",
          "type": "uint256"
        }
      ],
      "stateMutability": "view",
      "type": "function"
    },
    {
      "inputs": [
        {
          "internalType": "address",
          "name": "subject",
          "type": "address"
        }
      ],
      "name": "isVerified",
      "outputs": [
        {
          "internalType": "bool",
          "name": "",
          "type": "bool"
        }
      ],
      "stateMutability": "view",
      "type": "function"
    },
    {
      "inputs": [
        {
          "internalType": "address",
          "name": "account",
          "type": "address"
        }
      ],
      "name": "isVerifier",
      "outputs": [
        {
          "internalType": "bool",
          "name": "",
          "type": "bool"
        }
      ],
      "stateMutability": "view",
      "type": "function"
    },
    {
      "inputs": [],
      "name": "owner",
      "outputs": [
        {
          "internalType": "address",
          "name": "",
          "type": "address"
        }
      ],
      "stateMutability": "view",
      "type": "function"
    },
    {
      "inputs": [
        {
          "components": [
            {
              "internalType": "string",
              "name": "schema",
              "type": "string"
            },
            {
              "internalType": "address",
              "name": "subject",
              "type": "address"
            },
            {
              "internalType": "uint256",
              "name": "expiration",
              "type": "uint256"
            }
          ],
          "internalType": "struct VerificationResult",
          "name": "verificationResult",
          "type": "tuple"
        },
        {
          "internalType": "bytes",
          "name": "signature",
          "type": "bytes"
        }
      ],
      "name": "registerVerification",
      "outputs": [
        {
          "components": [
            {
              "internalType": "bytes32",
              "name": "uuid",
              "type": "bytes32"
            },
            {
              "internalType": "address",
              "name": "verifier",
              "type": "address"
            },
            {
              "internalType": "address",
              "name": "subject",
              "type": "address"
            },
            {
              "internalType": "uint256",
              "name": "entryTime",
              "type": "uint256"
            },
            {
              "internalType": "uint256",
              "name": "expirationTime",
              "type": "uint256"
            },
            {
              "internalType": "bool",
              "name": "revoked",
              "type": "bool"
            }
          ],
          "internalType": "struct VerificationRecord",
          "name": "",
          "type": "tuple"
        }
      ],
      "stateMutability": "nonpayable",
      "type": "function"
    },
    {
      "inputs": [
        {
          "internalType": "bytes32",
          "name": "uuid",
          "type": "bytes32"
        }
      ],
      "name": "removeVerification",
      "outputs": [],
      "stateMutability": "nonpayable",
      "type": "function"
    },
    {
      "inputs": [
        {
          "internalType": "address",
          "name": "verifierAddress",
          "type": "address"
        }
      ],
      "name": "removeVerifier",
      "outputs": [],
      "stateMutability": "nonpayable",
      "type": "function"
    },
    {
      "inputs": [],
      "name": "renounceOwnership",
      "outputs": [],
      "stateMutability": "nonpayable",
      "type": "function"
    },
    {
      "inputs": [
        {
          "internalType": "bytes32",
          "name": "uuid",
          "type": "bytes32"
        }
      ],
      "name": "revokeVerification",
      "outputs": [],
      "stateMutability": "nonpayable",
      "type": "function"
    },
    {
      "inputs": [
        {
          "internalType": "address",
          "name": "newOwner",
          "type": "address"
        }
      ],
      "name": "transferOwnership",
      "outputs": [],
      "stateMutability": "nonpayable",
      "type": "function"
    },
    {
      "inputs": [
        {
          "internalType": "address",
          "name": "verifierAddress",
          "type": "address"
        },
        {
          "components": [
            {
              "internalType": "bytes32",
              "name": "name",
              "type": "bytes32"
            },
            {
              "internalType": "string",
              "name": "did",
              "type": "string"
            },
            {
              "internalType": "string",
              "name": "url",
              "type": "string"
            },
            {
              "internalType": "address",
              "name": "signer",
              "type": "address"
            }
          ],
          "internalType": "struct VerifierInfo",
          "name": "verifierInfo",
          "type": "tuple"
        }
      ],
      "name": "updateVerifier",
      "outputs": [],
      "stateMutability": "nonpayable",
      "type": "function"
    }
  ],
  "bytecode": "0x6101406040523480156200001257600080fd5b506040518060400160405280601481526020017f566572696669636174696f6e52656769737472790000000000000000000000008152506040518060400160405280600381526020017f312e3000000000000000000000000000000000000000000000000000000000008152506200009f620000936200015a60201b60201c565b6200016260201b60201c565b60008280519060200120905060008280519060200120905060007f8b73c3c69bb8fe3d512ecc4cf759cc79239f7b179b0ffacaa9a75d522b39400f90508260e081815250508161010081815250504660a08181525050620001088184846200022660201b60201c565b608081815250503073ffffffffffffffffffffffffffffffffffffffff1660c08173ffffffffffffffffffffffffffffffffffffffff1660601b8152505080610120818152505050505050506200033a565b600033905090565b60008060009054906101000a900473ffffffffffffffffffffffffffffffffffffffff169050816000806101000a81548173ffffffffffffffffffffffffffffffffffffffff021916908373ffffffffffffffffffffffffffffffffffffffff1602179055508173ffffffffffffffffffffffffffffffffffffffff168173ffffffffffffffffffffffffffffffffffffffff167f8be0079c531659141344cd1fd0a4f28419497f9722a3daafe3b4186f6b6457e060405160405180910390a35050565b600083838346306040516020016200024395949392919062000295565b6040516020818303038152906040528051906020012090509392505050565b6200026d81620002f2565b82525050565b6200027e8162000306565b82525050565b6200028f8162000330565b82525050565b600060a082019050620002ac600083018862000273565b620002bb602083018762000273565b620002ca604083018662000273565b620002d9606083018562000284565b620002e8608083018462000262565b9695505050505050565b6000620002ff8262000310565b9050919050565b6000819050919050565b600073ffffffffffffffffffffffffffffffffffffffff82169050919050565b6000819050919050565b60805160a05160c05160601c60e051610100516101205161402d6200038d6000396000612380015260006123c2015260006123a1015260006122d60152600061232c01526000612355015261402d6000f3fe608060405234801561001057600080fd5b506004361061010b5760003560e01c80638da5cb5b116100a2578063b9209e3311610071578063b9209e33146102b6578063b9c688a7146102e6578063ca2dfd0a14610304578063ed2ffd2814610320578063f2fde38b146103505761010b565b80638da5cb5b1461021c57806394ef24401461023a578063958c39ff1461026a57806399cf1a1d1461029a5761010b565b8063417469a7116100de578063417469a7146101be5780634e4de26d146101da57806370eba124146101f6578063715018a6146102125761010b565b8063059ce95d146101105780630e9e848f146101405780631f05b37414610170578063331052181461018e575b600080fd5b61012a60048036038101906101259190612cbf565b61036c565b6040516101379190613730565b60405180910390f35b61015a60048036038101906101559190612cbf565b6105d1565b60405161016791906133e0565b60405180910390f35b61017861090b565b6040516101859190613752565b60405180910390f35b6101a860048036038101906101a39190612cbf565b610915565b6040516101b59190613402565b60405180910390f35b6101d860048036038101906101d39190612ce8565b610967565b005b6101f460048036038101906101ef9190612d3c565b610b84565b005b610210600480360381019061020b9190612d3c565b610d7a565b005b61021a610f0f565b005b610224610f23565b6040516102319190613395565b60405180910390f35b610254600480360381019061024f9190612d3c565b610f4c565b6040516102619190613715565b60405180910390f35b610284600480360381019061027f9190612d65565b61105e565b6040516102919190613715565b60405180910390f35b6102b460048036038101906102af9190612ce8565b6111c1565b005b6102d060048036038101906102cb9190612cbf565b6113f5565b6040516102dd9190613402565b60405180910390f35b6102ee611691565b6040516102fb9190613752565b60405180910390f35b61031e60048036038101906103199190612cbf565b61169b565b005b61033a60048036038101906103359190612cbf565b6118d2565b60405161034791906133e0565b60405180910390f35b61036a60048036038101906103659190612cbf565b611c0c565b005b610374612909565b6000801b600160008473ffffffffffffffffffffffffffffffffffffffff1673ffffffffffffffffffffffffffffffffffffffff1681526020019081526020016000206000015414156103fc576040517f08c379a00000000000000000000000000000000000000000000000000000000081526004016103f390613675565b60405180910390fd5b600160008373ffffffffffffffffffffffffffffffffffffffff1673ffffffffffffffffffffffffffffffffffffffff1681526020019081526020016000206040518060800160405290816000820154815260200160018201805461046090613930565b80601f016020809104026020016040519081016040528092919081815260200182805461048c90613930565b80156104d95780601f106104ae576101008083540402835291602001916104d9565b820191906000526020600020905b8154815290600101906020018083116104bc57829003601f168201915b505050505081526020016002820180546104f290613930565b80601f016020809104026020016040519081016040528092919081815260200182805461051e90613930565b801561056b5780601f106105405761010080835404028352916020019161056b565b820191906000526020600020905b81548152906001019060200180831161054e57829003601f168201915b505050505081526020016003820160009054906101000a900473ffffffffffffffffffffffffffffffffffffffff1673ffffffffffffffffffffffffffffffffffffffff1673ffffffffffffffffffffffffffffffffffffffff16815250509050919050565b6060600073ffffffffffffffffffffffffffffffffffffffff168273ffffffffffffffffffffffffffffffffffffffff161415610643576040517f08c379a000000000000000000000000000000000000000000000000000000000815260040161063a906136f5565b60405180910390fd5b6000600660008473ffffffffffffffffffffffffffffffffffffffff1673ffffffffffffffffffffffffffffffffffffffff1681526020019081526020016000208054806020026020016040519081016040528092919081815260200182805480156106ce57602002820191906000526020600020905b8154815260200190600101908083116106ba575b505050505090506000815167ffffffffffffffff811115610718577f4e487b7100000000000000000000000000000000000000000000000000000000600052604160045260246000fd5b60405190808252806020026020018201604052801561075157816020015b61073e61294a565b8152602001906001900390816107365790505b50905060005b82518110156109005760006004600085848151811061079f577f4e487b7100000000000000000000000000000000000000000000000000000000600052603260045260246000fd5b602002602001015181526020019081526020016000206040518060c0016040529081600082015481526020016001820160009054906101000a900473ffffffffffffffffffffffffffffffffffffffff1673ffffffffffffffffffffffffffffffffffffffff1673ffffffffffffffffffffffffffffffffffffffff1681526020016002820160009054906101000a900473ffffffffffffffffffffffffffffffffffffffff1673ffffffffffffffffffffffffffffffffffffffff1673ffffffffffffffffffffffffffffffffffffffff16815260200160038201548152602001600482015481526020016005820160009054906101000a900460ff1615151515815250509050808383815181106108e1577f4e487b7100000000000000000000000000000000000000000000000000000000600052603260045260246000fd5b60200260200101819052505080806108f890613993565b915050610757565b508092505050919050565b6000600754905090565b60008060001b600160008473ffffffffffffffffffffffffffffffffffffffff1673ffffffffffffffffffffffffffffffffffffffff1681526020019081526020016000206000015414159050919050565b61096f611c90565b6000801b600160008473ffffffffffffffffffffffffffffffffffffffff1673ffffffffffffffffffffffffffffffffffffffff1681526020019081526020016000206000015414156109f7576040517f08c379a00000000000000000000000000000000000000000000000000000000081526004016109ee90613675565b60405180910390fd5b80600160008473ffffffffffffffffffffffffffffffffffffffff1673ffffffffffffffffffffffffffffffffffffffff168152602001908152602001600020600082015181600001556020820151816001019080519060200190610a5d9291906129b1565b506040820151816002019080519060200190610a7a9291906129b1565b5060608201518160030160006101000a81548173ffffffffffffffffffffffffffffffffffffffff021916908373ffffffffffffffffffffffffffffffffffffffff1602179055509050508160026000836060015173ffffffffffffffffffffffffffffffffffffffff1673ffffffffffffffffffffffffffffffffffffffff16815260200190815260200160002060006101000a81548173ffffffffffffffffffffffffffffffffffffffff021916908373ffffffffffffffffffffffffffffffffffffffff1602179055507fcf8ca726ba9d58efa48fa96d3184c211fcce84e8b5e9a3c83c10c1ba9fd392c68282604051610b789291906133b0565b60405180910390a15050565b6000801b600160003373ffffffffffffffffffffffffffffffffffffffff1673ffffffffffffffffffffffffffffffffffffffff168152602001908152602001600020600001541415610c0c576040517f08c379a0000000000000000000000000000000000000000000000000000000008152600401610c0390613595565b60405180910390fd5b3373ffffffffffffffffffffffffffffffffffffffff166004600083815260200190815260200160002060010160009054906101000a900473ffffffffffffffffffffffffffffffffffffffff1673ffffffffffffffffffffffffffffffffffffffff1614610cb0576040517f08c379a0000000000000000000000000000000000000000000000000000000008152600401610ca790613695565b60405180910390fd5b600460008281526020019081526020016000206000808201600090556001820160006101000a81549073ffffffffffffffffffffffffffffffffffffffff02191690556002820160006101000a81549073ffffffffffffffffffffffffffffffffffffffff0219169055600382016000905560048201600090556005820160006101000a81549060ff021916905550507f9abf56d49e4ef717f3418600d3ed66048ca2ed8e3e630a70b76a71dd2142def581604051610d6f919061341d565b60405180910390a150565b6000801b600160003373ffffffffffffffffffffffffffffffffffffffff1673ffffffffffffffffffffffffffffffffffffffff168152602001908152602001600020600001541415610e02576040517f08c379a0000000000000000000000000000000000000000000000000000000008152600401610df990613595565b60405180910390fd5b3373ffffffffffffffffffffffffffffffffffffffff166004600083815260200190815260200160002060010160009054906101000a900473ffffffffffffffffffffffffffffffffffffffff1673ffffffffffffffffffffffffffffffffffffffff1614610ea6576040517f08c379a0000000000000000000000000000000000000000000000000000000008152600401610e9d906136d5565b60405180910390fd5b60016004600083815260200190815260200160002060050160006101000a81548160ff0219169083151502179055507f071ad1bb208a373a52e72fe5d8aa7755d658f88e197e666bf1a6d09d0ddb505681604051610f04919061341d565b60405180910390a150565b610f17611c90565b610f216000611d0e565b565b60008060009054906101000a900473ffffffffffffffffffffffffffffffffffffffff16905090565b610f5461294a565b600460008381526020019081526020016000206040518060c0016040529081600082015481526020016001820160009054906101000a900473ffffffffffffffffffffffffffffffffffffffff1673ffffffffffffffffffffffffffffffffffffffff1673ffffffffffffffffffffffffffffffffffffffff1681526020016002820160009054906101000a900473ffffffffffffffffffffffffffffffffffffffff1673ffffffffffffffffffffffffffffffffffffffff1673ffffffffffffffffffffffffffffffffffffffff16815260200160038201548152602001600482015481526020016005820160009054906101000a900460ff1615151515815250509050919050565b61106661294a565b6000801b600160003373ffffffffffffffffffffffffffffffffffffffff1673ffffffffffffffffffffffffffffffffffffffff1681526020019081526020016000206000015414156110ee576040517f08c379a00000000000000000000000000000000000000000000000000000000081526004016110e590613595565b60405180910390fd5b6110f783611dd2565b60006111038484611dd5565b90503373ffffffffffffffffffffffffffffffffffffffff16816020015173ffffffffffffffffffffffffffffffffffffffff1614611177576040517f08c379a000000000000000000000000000000000000000000000000000000000815260040161116e906135b5565b60405180910390fd5b61118081612061565b7fb13e5e7efcce7bbc67740f0fe050563d4fd1f5cc7096c3a32cb901711c95ab54816040516111af9190613715565b60405180910390a18091505092915050565b6111c9611c90565b6000801b600160008473ffffffffffffffffffffffffffffffffffffffff1673ffffffffffffffffffffffffffffffffffffffff1681526020019081526020016000206000015414611250576040517f08c379a0000000000000000000000000000000000000000000000000000000008152600401611247906135f5565b60405180910390fd5b80600160008473ffffffffffffffffffffffffffffffffffffffff1673ffffffffffffffffffffffffffffffffffffffff1681526020019081526020016000206000820151816000015560208201518160010190805190602001906112b69291906129b1565b5060408201518160020190805190602001906112d39291906129b1565b5060608201518160030160006101000a81548173ffffffffffffffffffffffffffffffffffffffff021916908373ffffffffffffffffffffffffffffffffffffffff1602179055509050508160026000836060015173ffffffffffffffffffffffffffffffffffffffff1673ffffffffffffffffffffffffffffffffffffffff16815260200190815260200160002060006101000a81548173ffffffffffffffffffffffffffffffffffffffff021916908373ffffffffffffffffffffffffffffffffffffffff160217905550600360008154809291906113b390613993565b91905055507f57fdb74cb7ec2177b327961b74feef54dcb8102656cf6484ea992a84eb1bb4d082826040516113e99291906133b0565b60405180910390a15050565b60008073ffffffffffffffffffffffffffffffffffffffff168273ffffffffffffffffffffffffffffffffffffffff161415611466576040517f08c379a000000000000000000000000000000000000000000000000000000000815260040161145d906136f5565b60405180910390fd5b6000600560008473ffffffffffffffffffffffffffffffffffffffff1673ffffffffffffffffffffffffffffffffffffffff1681526020019081526020016000208054806020026020016040519081016040528092919081815260200182805480156114f157602002820191906000526020600020905b8154815260200190600101908083116114dd575b5050505050905060005b815181101561168557600060046000848481518110611543577f4e487b7100000000000000000000000000000000000000000000000000000000600052603260045260246000fd5b602002602001015181526020019081526020016000206040518060c0016040529081600082015481526020016001820160009054906101000a900473ffffffffffffffffffffffffffffffffffffffff1673ffffffffffffffffffffffffffffffffffffffff1673ffffffffffffffffffffffffffffffffffffffff1681526020016002820160009054906101000a900473ffffffffffffffffffffffffffffffffffffffff1673ffffffffffffffffffffffffffffffffffffffff1673ffffffffffffffffffffffffffffffffffffffff16815260200160038201548152602001600482015481526020016005820160009054906101000a900460ff16151515158152505090508060a001511580156116605750428160800151115b15611671576001935050505061168c565b50808061167d90613993565b9150506114fb565b5060009150505b919050565b6000600354905090565b6116a3611c90565b6000801b600160008373ffffffffffffffffffffffffffffffffffffffff1673ffffffffffffffffffffffffffffffffffffffff16815260200190815260200160002060000154141561172b576040517f08c379a000000000000000000000000000000000000000000000000000000000815260040161172290613615565b60405180910390fd5b60026000600160008473ffffffffffffffffffffffffffffffffffffffff1673ffffffffffffffffffffffffffffffffffffffff16815260200190815260200160002060030160009054906101000a900473ffffffffffffffffffffffffffffffffffffffff1673ffffffffffffffffffffffffffffffffffffffff1673ffffffffffffffffffffffffffffffffffffffff16815260200190815260200160002060006101000a81549073ffffffffffffffffffffffffffffffffffffffff0219169055600160008273ffffffffffffffffffffffffffffffffffffffff1673ffffffffffffffffffffffffffffffffffffffff1681526020019081526020016000206000808201600090556001820160006118479190612a37565b6002820160006118579190612a37565b6003820160006101000a81549073ffffffffffffffffffffffffffffffffffffffff021916905550506003600081548092919061189390613906565b91905055507f44a3cd4eb5cc5748f6169df057b1cb2ae4c383e87cd94663c430e095d4cba424816040516118c79190613395565b60405180910390a150565b6060600073ffffffffffffffffffffffffffffffffffffffff168273ffffffffffffffffffffffffffffffffffffffff161415611944576040517f08c379a000000000000000000000000000000000000000000000000000000000815260040161193b906136f5565b60405180910390fd5b6000600560008473ffffffffffffffffffffffffffffffffffffffff1673ffffffffffffffffffffffffffffffffffffffff1681526020019081526020016000208054806020026020016040519081016040528092919081815260200182805480156119cf57602002820191906000526020600020905b8154815260200190600101908083116119bb575b505050505090506000815167ffffffffffffffff811115611a19577f4e487b7100000000000000000000000000000000000000000000000000000000600052604160045260246000fd5b604051908082528060200260200182016040528015611a5257816020015b611a3f61294a565b815260200190600190039081611a375790505b50905060005b8251811015611c0157600060046000858481518110611aa0577f4e487b7100000000000000000000000000000000000000000000000000000000600052603260045260246000fd5b602002602001015181526020019081526020016000206040518060c0016040529081600082015481526020016001820160009054906101000a900473ffffffffffffffffffffffffffffffffffffffff1673ffffffffffffffffffffffffffffffffffffffff1673ffffffffffffffffffffffffffffffffffffffff1681526020016002820160009054906101000a900473ffffffffffffffffffffffffffffffffffffffff1673ffffffffffffffffffffffffffffffffffffffff1673ffffffffffffffffffffffffffffffffffffffff16815260200160038201548152602001600482015481526020016005820160009054906101000a900460ff161515151581525050905080838381518110611be2577f4e487b7100000000000000000000000000000000000000000000000000000000600052603260045260246000fd5b6020026020010181905250508080611bf990613993565b915050611a58565b508092505050919050565b611c14611c90565b600073ffffffffffffffffffffffffffffffffffffffff168173ffffffffffffffffffffffffffffffffffffffff161415611c84576040517f08c379a0000000000000000000000000000000000000000000000000000000008152600401611c7b90613575565b60405180910390fd5b611c8d81611d0e565b50565b611c9861223f565b73ffffffffffffffffffffffffffffffffffffffff16611cb6610f23565b73ffffffffffffffffffffffffffffffffffffffff1614611d0c576040517f08c379a0000000000000000000000000000000000000000000000000000000008152600401611d0390613655565b60405180910390fd5b565b60008060009054906101000a900473ffffffffffffffffffffffffffffffffffffffff169050816000806101000a81548173ffffffffffffffffffffffffffffffffffffffff021916908373ffffffffffffffffffffffffffffffffffffffff1602179055508173ffffffffffffffffffffffffffffffffffffffff168173ffffffffffffffffffffffffffffffffffffffff167f8be0079c531659141344cd1fd0a4f28419497f9722a3daafe3b4186f6b6457e060405160405180910390a35050565b50565b611ddd61294a565b6000611e477f10f37c780798f8d6ccc5deba550b287b1ccef3a50b9007536dc9ce57c6f0668385600001518051906020012086602001518760400151604051602001611e2c9493929190613438565b60405160208183030381529060405280519060200120612247565b90506000611e558285612261565b90506000600260008373ffffffffffffffffffffffffffffffffffffffff1673ffffffffffffffffffffffffffffffffffffffff16815260200190815260200160002060009054906101000a900473ffffffffffffffffffffffffffffffffffffffff1690508173ffffffffffffffffffffffffffffffffffffffff16600160008373ffffffffffffffffffffffffffffffffffffffff1673ffffffffffffffffffffffffffffffffffffffff16815260200190815260200160002060030160009054906101000a900473ffffffffffffffffffffffffffffffffffffffff1673ffffffffffffffffffffffffffffffffffffffff1614611f8b576040517f08c379a0000000000000000000000000000000000000000000000000000000008152600401611f82906136b5565b60405180910390fd5b42866040015111611fd1576040517f08c379a0000000000000000000000000000000000000000000000000000000008152600401611fc890613535565b60405180910390fd5b60006040518060c001604052806000801b81526020018373ffffffffffffffffffffffffffffffffffffffff168152602001886020015173ffffffffffffffffffffffffffffffffffffffff16815260200142815260200188604001518152602001600015158152509050600061204782612288565b905080826000018181525050819550505050505092915050565b6007600081548092919061207490613993565b91905055508060046000836000015181526020019081526020016000206000820151816000015560208201518160010160006101000a81548173ffffffffffffffffffffffffffffffffffffffff021916908373ffffffffffffffffffffffffffffffffffffffff16021790555060408201518160020160006101000a81548173ffffffffffffffffffffffffffffffffffffffff021916908373ffffffffffffffffffffffffffffffffffffffff160217905550606082015181600301556080820151816004015560a08201518160050160006101000a81548160ff02191690831515021790555090505060056000826040015173ffffffffffffffffffffffffffffffffffffffff1673ffffffffffffffffffffffffffffffffffffffff1681526020019081526020016000208160000151908060018154018082558091505060019003906000526020600020016000909190919091505560066000826020015173ffffffffffffffffffffffffffffffffffffffff1673ffffffffffffffffffffffffffffffffffffffff1681526020019081526020016000208160000151908060018154018082558091505060019003906000526020600020016000909190919091505550565b600033905090565b600061225a6122546122d2565b836123ec565b9050919050565b6000806000612270858561241f565b9150915061227d81612471565b819250505092915050565b600081602001518260400151836060015184608001516007546040516020016122b59594939291906132ff565b604051602081830303815290604052805190602001209050919050565b60007f000000000000000000000000000000000000000000000000000000000000000073ffffffffffffffffffffffffffffffffffffffff163073ffffffffffffffffffffffffffffffffffffffff1614801561234e57507f000000000000000000000000000000000000000000000000000000000000000046145b1561237b577f000000000000000000000000000000000000000000000000000000000000000090506123e9565b6123e67f00000000000000000000000000000000000000000000000000000000000000007f00000000000000000000000000000000000000000000000000000000000000007f00000000000000000000000000000000000000000000000000000000000000006127c2565b90505b90565b6000828260405160200161240192919061335e565b60405160208183030381529060405280519060200120905092915050565b6000806041835114156124615760008060006020860151925060408601519150606086015160001a9050612455878285856127fc565b9450945050505061246a565b60006002915091505b9250929050565b600060048111156124ab577f4e487b7100000000000000000000000000000000000000000000000000000000600052602160045260246000fd5b8160048111156124e4577f4e487b7100000000000000000000000000000000000000000000000000000000600052602160045260246000fd5b14156124ef576127bf565b60016004811115612529577f4e487b7100000000000000000000000000000000000000000000000000000000600052602160045260246000fd5b816004811115612562577f4e487b7100000000000000000000000000000000000000000000000000000000600052602160045260246000fd5b14156125a3576040517f08c379a000000000000000000000000000000000000000000000000000000000815260040161259a90613515565b60405180910390fd5b600260048111156125dd577f4e487b7100000000000000000000000000000000000000000000000000000000600052602160045260246000fd5b816004811115612616577f4e487b7100000000000000000000000000000000000000000000000000000000600052602160045260246000fd5b1415612657576040517f08c379a000000000000000000000000000000000000000000000000000000000815260040161264e90613555565b60405180910390fd5b60036004811115612691577f4e487b7100000000000000000000000000000000000000000000000000000000600052602160045260246000fd5b8160048111156126ca577f4e487b7100000000000000000000000000000000000000000000000000000000600052602160045260246000fd5b141561270b576040517f08c379a0000000000000000000000000000000000000000000000000000000008152600401612702906135d5565b60405180910390fd5b600480811115612744577f4e487b7100000000000000000000000000000000000000000000000000000000600052602160045260246000fd5b81600481111561277d577f4e487b7100000000000000000000000000000000000000000000000000000000600052602160045260246000fd5b14156127be576040517f08c379a00000000000000000000000000000000000000000000000000000000081526004016127b590613635565b60405180910390fd5b5b50565b600083838346306040516020016127dd95949392919061347d565b6040516020818303038152906040528051906020012090509392505050565b6000807f7fffffffffffffffffffffffffffffff5d576e7357a4501ddfe92f46681b20a08360001c1115612837576000600391509150612900565b601b8560ff161415801561284f5750601c8560ff1614155b15612861576000600491509150612900565b60006001878787876040516000815260200160405260405161288694939291906134d0565b6020604051602081039080840390855afa1580156128a8573d6000803e3d6000fd5b505050602060405103519050600073ffffffffffffffffffffffffffffffffffffffff168173ffffffffffffffffffffffffffffffffffffffff1614156128f757600060019250925050612900565b80600092509250505b94509492505050565b6040518060800160405280600080191681526020016060815260200160608152602001600073ffffffffffffffffffffffffffffffffffffffff1681525090565b6040518060c0016040528060008019168152602001600073ffffffffffffffffffffffffffffffffffffffff168152602001600073ffffffffffffffffffffffffffffffffffffffff16815260200160008152602001600081526020016000151581525090565b8280546129bd90613930565b90600052602060002090601f0160209004810192826129df5760008555612a26565b82601f106129f857805160ff1916838001178555612a26565b82800160010185558215612a26579182015b82811115612a25578251825591602001919060010190612a0a565b5b509050612a339190612a77565b5090565b508054612a4390613930565b6000825580601f10612a555750612a74565b601f016020900490600052602060002090810190612a739190612a77565b5b50565b5b80821115612a90576000816000905550600101612a78565b5090565b6000612aa7612aa284613792565b61376d565b905082815260208101848484011115612abf57600080fd5b612aca8482856138c4565b509392505050565b6000612ae5612ae0846137c3565b61376d565b905082815260208101848484011115612afd57600080fd5b612b088482856138c4565b509392505050565b600081359050612b1f81613fb2565b92915050565b600081359050612b3481613fc9565b92915050565b600082601f830112612b4b57600080fd5b8135612b5b848260208601612a94565b91505092915050565b600082601f830112612b7557600080fd5b8135612b85848260208601612ad2565b91505092915050565b600060608284031215612ba057600080fd5b612baa606061376d565b9050600082013567ffffffffffffffff811115612bc657600080fd5b612bd284828501612b64565b6000830152506020612be684828501612b10565b6020830152506040612bfa84828501612caa565b60408301525092915050565b600060808284031215612c1857600080fd5b612c22608061376d565b90506000612c3284828501612b25565b600083015250602082013567ffffffffffffffff811115612c5257600080fd5b612c5e84828501612b64565b602083015250604082013567ffffffffffffffff811115612c7e57600080fd5b612c8a84828501612b64565b6040830152506060612c9e84828501612b10565b60608301525092915050565b600081359050612cb981613fe0565b92915050565b600060208284031215612cd157600080fd5b6000612cdf84828501612b10565b91505092915050565b60008060408385031215612cfb57600080fd5b6000612d0985828601612b10565b925050602083013567ffffffffffffffff811115612d2657600080fd5b612d3285828601612c06565b9150509250929050565b600060208284031215612d4e57600080fd5b6000612d5c84828501612b25565b91505092915050565b60008060408385031215612d7857600080fd5b600083013567ffffffffffffffff811115612d9257600080fd5b612d9e85828601612b8e565b925050602083013567ffffffffffffffff811115612dbb57600080fd5b612dc785828601612b3a565b9150509250929050565b6000612ddd838361315b565b60c08301905092915050565b612df281613865565b82525050565b612e0181613865565b82525050565b612e18612e1382613865565b6139dc565b82525050565b6000612e2982613804565b612e338185613827565b9350612e3e836137f4565b8060005b83811015612e6f578151612e568882612dd1565b9750612e618361381a565b925050600181019050612e42565b5085935050505092915050565b612e8581613877565b82525050565b612e9481613877565b82525050565b612ea381613883565b82525050565b612eb281613883565b82525050565b612ec9612ec482613883565b6139ee565b82525050565b6000612eda8261380f565b612ee48185613838565b9350612ef48185602086016138d3565b612efd81613aa1565b840191505092915050565b6000612f15601883613849565b9150612f2082613abf565b602082019050919050565b6000612f38603783613849565b9150612f4382613ae8565b604082019050919050565b6000612f5b601f83613849565b9150612f6682613b37565b602082019050919050565b6000612f7e602683613849565b9150612f8982613b60565b604082019050919050565b6000612fa160028361385a565b9150612fac82613baf565b600282019050919050565b6000612fc4602e83613849565b9150612fcf82613bd8565b604082019050919050565b6000612fe7604483613849565b9150612ff282613c27565b606082019050919050565b600061300a602283613849565b915061301582613c9c565b604082019050919050565b600061302d602d83613849565b915061303882613ceb565b604082019050919050565b6000613050603583613849565b915061305b82613d3a565b604082019050919050565b6000613073602283613849565b915061307e82613d89565b604082019050919050565b6000613096602083613849565b91506130a182613dd8565b602082019050919050565b60006130b9602e83613849565b91506130c482613e01565b604082019050919050565b60006130dc604983613849565b91506130e782613e50565b606082019050919050565b60006130ff603683613849565b915061310a82613ec5565b604082019050919050565b6000613122603983613849565b915061312d82613f14565b604082019050919050565b6000613145602583613849565b915061315082613f63565b604082019050919050565b60c0820160008201516131716000850182612e9a565b5060208201516131846020850182612de9565b5060408201516131976040850182612de9565b5060608201516131aa60608501826132bb565b5060808201516131bd60808501826132bb565b5060a08201516131d060a0850182612e7c565b50505050565b60c0820160008201516131ec6000850182612e9a565b5060208201516131ff6020850182612de9565b5060408201516132126040850182612de9565b50606082015161322560608501826132bb565b50608082015161323860808501826132bb565b5060a082015161324b60a0850182612e7c565b50505050565b60006080830160008301516132696000860182612e9a565b50602083015184820360208601526132818282612ecf565b9150506040830151848203604086015261329b8282612ecf565b91505060608301516132b06060860182612de9565b508091505092915050565b6132c4816138ad565b82525050565b6132d3816138ad565b82525050565b6132ea6132e5826138ad565b613a0a565b82525050565b6132f9816138b7565b82525050565b600061330b8288612e07565b60148201915061331b8287612e07565b60148201915061332b82866132d9565b60208201915061333b82856132d9565b60208201915061334b82846132d9565b6020820191508190509695505050505050565b600061336982612f94565b91506133758285612eb8565b6020820191506133858284612eb8565b6020820191508190509392505050565b60006020820190506133aa6000830184612df8565b92915050565b60006040820190506133c56000830185612df8565b81810360208301526133d78184613251565b90509392505050565b600060208201905081810360008301526133fa8184612e1e565b905092915050565b60006020820190506134176000830184612e8b565b92915050565b60006020820190506134326000830184612ea9565b92915050565b600060808201905061344d6000830187612ea9565b61345a6020830186612ea9565b6134676040830185612df8565b61347460608301846132ca565b95945050505050565b600060a0820190506134926000830188612ea9565b61349f6020830187612ea9565b6134ac6040830186612ea9565b6134b960608301856132ca565b6134c66080830184612df8565b9695505050505050565b60006080820190506134e56000830187612ea9565b6134f260208301866132f0565b6134ff6040830185612ea9565b61350c6060830184612ea9565b95945050505050565b6000602082019050818103600083015261352e81612f08565b9050919050565b6000602082019050818103600083015261354e81612f2b565b9050919050565b6000602082019050818103600083015261356e81612f4e565b9050919050565b6000602082019050818103600083015261358e81612f71565b9050919050565b600060208201905081810360008301526135ae81612fb7565b9050919050565b600060208201905081810360008301526135ce81612fda565b9050919050565b600060208201905081810360008301526135ee81612ffd565b9050919050565b6000602082019050818103600083015261360e81613020565b9050919050565b6000602082019050818103600083015261362e81613043565b9050919050565b6000602082019050818103600083015261364e81613066565b9050919050565b6000602082019050818103600083015261366e81613089565b9050919050565b6000602082019050818103600083015261368e816130ac565b9050919050565b600060208201905081810360008301526136ae816130cf565b9050919050565b600060208201905081810360008301526136ce816130f2565b9050919050565b600060208201905081810360008301526136ee81613115565b9050919050565b6000602082019050818103600083015261370e81613138565b9050919050565b600060c08201905061372a60008301846131d6565b92915050565b6000602082019050818103600083015261374a8184613251565b905092915050565b600060208201905061376760008301846132ca565b92915050565b6000613777613788565b90506137838282613962565b919050565b6000604051905090565b600067ffffffffffffffff8211156137ad576137ac613a72565b5b6137b682613aa1565b9050602081019050919050565b600067ffffffffffffffff8211156137de576137dd613a72565b5b6137e782613aa1565b9050602081019050919050565b6000819050602082019050919050565b600081519050919050565b600081519050919050565b6000602082019050919050565b600082825260208201905092915050565b600082825260208201905092915050565b600082825260208201905092915050565b600081905092915050565b60006138708261388d565b9050919050565b60008115159050919050565b6000819050919050565b600073ffffffffffffffffffffffffffffffffffffffff82169050919050565b6000819050919050565b600060ff82169050919050565b82818337600083830152505050565b60005b838110156138f15780820151818401526020810190506138d6565b83811115613900576000848401525b50505050565b6000613911826138ad565b9150600082141561392557613924613a14565b5b600182039050919050565b6000600282049050600182168061394857607f821691505b6020821081141561395c5761395b613a43565b5b50919050565b61396b82613aa1565b810181811067ffffffffffffffff8211171561398a57613989613a72565b5b80604052505050565b600061399e826138ad565b91507fffffffffffffffffffffffffffffffffffffffffffffffffffffffffffffffff8214156139d1576139d0613a14565b5b600182019050919050565b60006139e7826139f8565b9050919050565b6000819050919050565b6000613a0382613ab2565b9050919050565b6000819050919050565b7f4e487b7100000000000000000000000000000000000000000000000000000000600052601160045260246000fd5b7f4e487b7100000000000000000000000000000000000000000000000000000000600052602260045260246000fd5b7f4e487b7100000000000000000000000000000000000000000000000000000000600052604160045260246000fd5b6000601f19601f8301169050919050565b60008160601b9050919050565b7f45434453413a20696e76616c6964207369676e61747572650000000000000000600082015250565b7f566572696669636174696f6e52656769737472793a205665726966696361746960008201527f6f6e20636f6e6669726d6174696f6e2065787069726564000000000000000000602082015250565b7f45434453413a20696e76616c6964207369676e6174757265206c656e67746800600082015250565b7f4f776e61626c653a206e6577206f776e657220697320746865207a65726f206160008201527f6464726573730000000000000000000000000000000000000000000000000000602082015250565b7f1901000000000000000000000000000000000000000000000000000000000000600082015250565b7f566572696669636174696f6e52656769737472793a2043616c6c65722069732060008201527f6e6f742061205665726966696572000000000000000000000000000000000000602082015250565b7f566572696669636174696f6e52656769737472793a2043616c6c65722069732060008201527f6e6f7420746865207665726966696572206f662074686520766572696669636160208201527f74696f6e00000000000000000000000000000000000000000000000000000000604082015250565b7f45434453413a20696e76616c6964207369676e6174757265202773272076616c60008201527f7565000000000000000000000000000000000000000000000000000000000000602082015250565b7f566572696669636174696f6e52656769737472793a205665726966696572204160008201527f6464726573732045786973747300000000000000000000000000000000000000602082015250565b7f566572696669636174696f6e52656769737472793a205665726966696572204160008201527f64647265737320446f6573204e6f742045786973740000000000000000000000602082015250565b7f45434453413a20696e76616c6964207369676e6174757265202776272076616c60008201527f7565000000000000000000000000000000000000000000000000000000000000602082015250565b7f4f776e61626c653a2063616c6c6572206973206e6f7420746865206f776e6572600082015250565b7f566572696669636174696f6e52656769737472793a20556e6b6e6f776e20566560008201527f7269666965722041646472657373000000000000000000000000000000000000602082015250565b7f566572696669636174696f6e52656769737472793a2043616c6c65722069732060008201527f6e6f7420746865207665726966696572206f6620746865207265666572656e6360208201527f6564207265636f72640000000000000000000000000000000000000000000000604082015250565b7f566572696669636174696f6e52656769737472793a205369676e65642064696760008201527f6573742063616e6e6f7420626520766572696669656400000000000000000000602082015250565b7f566572696669636174696f6e52656769737472793a2043616c6c65722069732060008201527f6e6f7420746865206f726967696e616c20766572696669657200000000000000602082015250565b7f566572696669636174696f6e52656769737472793a20496e76616c696420616460008201527f6472657373000000000000000000000000000000000000000000000000000000602082015250565b613fbb81613865565b8114613fc657600080fd5b50565b613fd281613883565b8114613fdd57600080fd5b50565b613fe9816138ad565b8114613ff457600080fd5b5056fea2646970667358221220e055c04cb76154d711781e57c31daebfcabcd90e655acddd42d126e1988d668164736f6c63430008040033",
  "linkReferences": {},
  "deployedLinkReferences": {}
}