{
  "_format": "hh-sol-artifact-1",
  "contractName": "ThresholdToken",
  "sourceName": "contracts/ThresholdToken.sol",
  "abi": [
    {
      "inputs": [
        {
          "internalType": "uint256",
          "name": "initialSupply",
          "type": "uint256"
        }
      ],
      "stateMutability": "nonpayable",
      "type": "constructor"
    },
    {
      "anonymous": false,
      "inputs": [
        {
          "indexed": true,
          "internalType": "address",
          "name": "owner",
          "type": "address"
        },
        {
          "indexed": true,
          "internalType": "address",
          "name": "spender",
          "type": "address"
        },
        {
          "indexed": false,
          "internalType": "uint256",
          "name": "value",
          "type": "uint256"
        }
      ],
      "name": "Approval",
      "type": "event"
    },
    {
      "anonymous": false,
      "inputs": [
        {
          "indexed": true,
          "internalType": "address",
          "name": "previousOwner",
          "type": "address"
        },
        {
          "indexed": true,
          "internalType": "address",
          "name": "newOwner",
          "type": "address"
        }
      ],
      "name": "OwnershipTransferred",
      "type": "event"
    },
    {
      "anonymous": false,
      "inputs": [
        {
          "indexed": true,
          "internalType": "address",
          "name": "from",
          "type": "address"
        },
        {
          "indexed": true,
          "internalType": "address",
          "name": "to",
          "type": "address"
        },
        {
          "indexed": false,
          "internalType": "uint256",
          "name": "value",
          "type": "uint256"
        }
      ],
      "name": "Transfer",
      "type": "event"
    },
    {
      "anonymous": false,
      "inputs": [
        {
          "indexed": false,
          "internalType": "bytes32",
          "name": "uuid",
          "type": "bytes32"
        }
      ],
      "name": "VerificationRemoved",
      "type": "event"
    },
    {
      "anonymous": false,
      "inputs": [
        {
          "components": [
            {
              "internalType": "bytes32",
              "name": "uuid",
              "type": "bytes32"
            },
            {
              "internalType": "address",
              "name": "verifier",
              "type": "address"
            },
            {
              "internalType": "address",
              "name": "subject",
              "type": "address"
            },
            {
              "internalType": "uint256",
              "name": "entryTime",
              "type": "uint256"
            },
            {
              "internalType": "uint256",
              "name": "expirationTime",
              "type": "uint256"
            },
            {
              "internalType": "bool",
              "name": "revoked",
              "type": "bool"
            }
          ],
          "indexed": false,
          "internalType": "struct VerificationRecord",
          "name": "verificationRecord",
          "type": "tuple"
        }
      ],
      "name": "VerificationResultConfirmed",
      "type": "event"
    },
    {
      "anonymous": false,
      "inputs": [
        {
          "indexed": false,
          "internalType": "bytes32",
          "name": "uuid",
          "type": "bytes32"
        }
      ],
      "name": "VerificationRevoked",
      "type": "event"
    },
    {
      "anonymous": false,
      "inputs": [
        {
          "indexed": false,
          "internalType": "address",
          "name": "verifier",
          "type": "address"
        },
        {
          "components": [
            {
              "internalType": "bytes32",
              "name": "name",
              "type": "bytes32"
            },
            {
              "internalType": "string",
              "name": "did",
              "type": "string"
            },
            {
              "internalType": "string",
              "name": "url",
              "type": "string"
            },
            {
              "internalType": "address",
              "name": "signer",
              "type": "address"
            }
          ],
          "indexed": false,
          "internalType": "struct VerifierInfo",
          "name": "verifierInfo",
          "type": "tuple"
        }
      ],
      "name": "VerifierAdded",
      "type": "event"
    },
    {
      "anonymous": false,
      "inputs": [
        {
          "indexed": false,
          "internalType": "address",
          "name": "verifier",
          "type": "address"
        }
      ],
      "name": "VerifierRemoved",
      "type": "event"
    },
    {
      "anonymous": false,
      "inputs": [
        {
          "indexed": false,
          "internalType": "address",
          "name": "verifier",
          "type": "address"
        },
        {
          "components": [
            {
              "internalType": "bytes32",
              "name": "name",
              "type": "bytes32"
            },
            {
              "internalType": "string",
              "name": "did",
              "type": "string"
            },
            {
              "internalType": "string",
              "name": "url",
              "type": "string"
            },
            {
              "internalType": "address",
              "name": "signer",
              "type": "address"
            }
          ],
          "indexed": false,
          "internalType": "struct VerifierInfo",
          "name": "verifierInfo",
          "type": "tuple"
        }
      ],
      "name": "VerifierUpdated",
      "type": "event"
    },
    {
      "inputs": [
        {
          "internalType": "address",
          "name": "verifierAddress",
          "type": "address"
        },
        {
          "components": [
            {
              "internalType": "bytes32",
              "name": "name",
              "type": "bytes32"
            },
            {
              "internalType": "string",
              "name": "did",
              "type": "string"
            },
            {
              "internalType": "string",
              "name": "url",
              "type": "string"
            },
            {
              "internalType": "address",
              "name": "signer",
              "type": "address"
            }
          ],
          "internalType": "struct VerifierInfo",
          "name": "verifierInfo",
          "type": "tuple"
        }
      ],
      "name": "addVerifier",
      "outputs": [],
      "stateMutability": "nonpayable",
      "type": "function"
    },
    {
      "inputs": [
        {
          "internalType": "address",
          "name": "owner",
          "type": "address"
        },
        {
          "internalType": "address",
          "name": "spender",
          "type": "address"
        }
      ],
      "name": "allowance",
      "outputs": [
        {
          "internalType": "uint256",
          "name": "",
          "type": "uint256"
        }
      ],
      "stateMutability": "view",
      "type": "function"
    },
    {
      "inputs": [
        {
          "internalType": "address",
          "name": "spender",
          "type": "address"
        },
        {
          "internalType": "uint256",
          "name": "amount",
          "type": "uint256"
        }
      ],
      "name": "approve",
      "outputs": [
        {
          "internalType": "bool",
          "name": "",
          "type": "bool"
        }
      ],
      "stateMutability": "nonpayable",
      "type": "function"
    },
    {
      "inputs": [
        {
          "internalType": "address",
          "name": "account",
          "type": "address"
        }
      ],
      "name": "balanceOf",
      "outputs": [
        {
          "internalType": "uint256",
          "name": "",
          "type": "uint256"
        }
      ],
      "stateMutability": "view",
      "type": "function"
    },
    {
      "inputs": [],
      "name": "decimals",
      "outputs": [
        {
          "internalType": "uint8",
          "name": "",
          "type": "uint8"
        }
      ],
      "stateMutability": "view",
      "type": "function"
    },
    {
      "inputs": [
        {
          "internalType": "address",
          "name": "spender",
          "type": "address"
        },
        {
          "internalType": "uint256",
          "name": "subtractedValue",
          "type": "uint256"
        }
      ],
      "name": "decreaseAllowance",
      "outputs": [
        {
          "internalType": "bool",
          "name": "",
          "type": "bool"
        }
      ],
      "stateMutability": "nonpayable",
      "type": "function"
    },
    {
      "inputs": [],
      "name": "getThreshold",
      "outputs": [
        {
          "internalType": "uint256",
          "name": "",
          "type": "uint256"
        }
      ],
      "stateMutability": "view",
      "type": "function"
    },
    {
      "inputs": [
        {
          "internalType": "bytes32",
          "name": "uuid",
          "type": "bytes32"
        }
      ],
      "name": "getVerification",
      "outputs": [
        {
          "components": [
            {
              "internalType": "bytes32",
              "name": "uuid",
              "type": "bytes32"
            },
            {
              "internalType": "address",
              "name": "verifier",
              "type": "address"
            },
            {
              "internalType": "address",
              "name": "subject",
              "type": "address"
            },
            {
              "internalType": "uint256",
              "name": "entryTime",
              "type": "uint256"
            },
            {
              "internalType": "uint256",
              "name": "expirationTime",
              "type": "uint256"
            },
            {
              "internalType": "bool",
              "name": "revoked",
              "type": "bool"
            }
          ],
          "internalType": "struct VerificationRecord",
          "name": "",
          "type": "tuple"
        }
      ],
      "stateMutability": "view",
      "type": "function"
    },
    {
      "inputs": [],
      "name": "getVerificationCount",
      "outputs": [
        {
          "internalType": "uint256",
          "name": "",
          "type": "uint256"
        }
      ],
      "stateMutability": "view",
      "type": "function"
    },
    {
      "inputs": [
        {
          "internalType": "address",
          "name": "subject",
          "type": "address"
        }
      ],
      "name": "getVerificationsForSubject",
      "outputs": [
        {
          "components": [
            {
              "internalType": "bytes32",
              "name": "uuid",
              "type": "bytes32"
            },
            {
              "internalType": "address",
              "name": "verifier",
              "type": "address"
            },
            {
              "internalType": "address",
              "name": "subject",
              "type": "address"
            },
            {
              "internalType": "uint256",
              "name": "entryTime",
              "type": "uint256"
            },
            {
              "internalType": "uint256",
              "name": "expirationTime",
              "type": "uint256"
            },
            {
              "internalType": "bool",
              "name": "revoked",
              "type": "bool"
            }
          ],
          "internalType": "struct VerificationRecord[]",
          "name": "",
          "type": "tuple[]"
        }
      ],
      "stateMutability": "view",
      "type": "function"
    },
    {
      "inputs": [
        {
          "internalType": "address",
          "name": "verifier",
          "type": "address"
        }
      ],
      "name": "getVerificationsForVerifier",
      "outputs": [
        {
          "components": [
            {
              "internalType": "bytes32",
              "name": "uuid",
              "type": "bytes32"
            },
            {
              "internalType": "address",
              "name": "verifier",
              "type": "address"
            },
            {
              "internalType": "address",
              "name": "subject",
              "type": "address"
            },
            {
              "internalType": "uint256",
              "name": "entryTime",
              "type": "uint256"
            },
            {
              "internalType": "uint256",
              "name": "expirationTime",
              "type": "uint256"
            },
            {
              "internalType": "bool",
              "name": "revoked",
              "type": "bool"
            }
          ],
          "internalType": "struct VerificationRecord[]",
          "name": "",
          "type": "tuple[]"
        }
      ],
      "stateMutability": "view",
      "type": "function"
    },
    {
      "inputs": [
        {
          "internalType": "address",
          "name": "verifierAddress",
          "type": "address"
        }
      ],
      "name": "getVerifier",
      "outputs": [
        {
          "components": [
            {
              "internalType": "bytes32",
              "name": "name",
              "type": "bytes32"
            },
            {
              "internalType": "string",
              "name": "did",
              "type": "string"
            },
            {
              "internalType": "string",
              "name": "url",
              "type": "string"
            },
            {
              "internalType": "address",
              "name": "signer",
              "type": "address"
            }
          ],
          "internalType": "struct VerifierInfo",
          "name": "",
          "type": "tuple"
        }
      ],
      "stateMutability": "view",
      "type": "function"
    },
    {
      "inputs": [],
      "name": "getVerifierCount",
      "outputs": [
        {
          "internalType": "uint256",
          "name": "",
          "type": "uint256"
        }
      ],
      "stateMutability": "view",
      "type": "function"
    },
    {
      "inputs": [
        {
          "internalType": "address",
          "name": "spender",
          "type": "address"
        },
        {
          "internalType": "uint256",
          "name": "addedValue",
          "type": "uint256"
        }
      ],
      "name": "increaseAllowance",
      "outputs": [
        {
          "internalType": "bool",
          "name": "",
          "type": "bool"
        }
      ],
      "stateMutability": "nonpayable",
      "type": "function"
    },
    {
      "inputs": [
        {
          "internalType": "address",
          "name": "subject",
          "type": "address"
        }
      ],
      "name": "isVerified",
      "outputs": [
        {
          "internalType": "bool",
          "name": "",
          "type": "bool"
        }
      ],
      "stateMutability": "view",
      "type": "function"
    },
    {
      "inputs": [
        {
          "internalType": "address",
          "name": "account",
          "type": "address"
        }
      ],
      "name": "isVerifier",
      "outputs": [
        {
          "internalType": "bool",
          "name": "",
          "type": "bool"
        }
      ],
      "stateMutability": "view",
      "type": "function"
    },
    {
      "inputs": [],
      "name": "name",
      "outputs": [
        {
          "internalType": "string",
          "name": "",
          "type": "string"
        }
      ],
      "stateMutability": "view",
      "type": "function"
    },
    {
      "inputs": [],
      "name": "owner",
      "outputs": [
        {
          "internalType": "address",
          "name": "",
          "type": "address"
        }
      ],
      "stateMutability": "view",
      "type": "function"
    },
    {
      "inputs": [
        {
          "components": [
            {
              "internalType": "string",
              "name": "schema",
              "type": "string"
            },
            {
              "internalType": "address",
              "name": "subject",
              "type": "address"
            },
            {
              "internalType": "uint256",
              "name": "expiration",
              "type": "uint256"
            }
          ],
          "internalType": "struct VerificationResult",
          "name": "verificationResult",
          "type": "tuple"
        },
        {
          "internalType": "bytes",
          "name": "signature",
          "type": "bytes"
        }
      ],
      "name": "registerVerification",
      "outputs": [
        {
          "components": [
            {
              "internalType": "bytes32",
              "name": "uuid",
              "type": "bytes32"
            },
            {
              "internalType": "address",
              "name": "verifier",
              "type": "address"
            },
            {
              "internalType": "address",
              "name": "subject",
              "type": "address"
            },
            {
              "internalType": "uint256",
              "name": "entryTime",
              "type": "uint256"
            },
            {
              "internalType": "uint256",
              "name": "expirationTime",
              "type": "uint256"
            },
            {
              "internalType": "bool",
              "name": "revoked",
              "type": "bool"
            }
          ],
          "internalType": "struct VerificationRecord",
          "name": "",
          "type": "tuple"
        }
      ],
      "stateMutability": "nonpayable",
      "type": "function"
    },
    {
      "inputs": [
        {
          "internalType": "bytes32",
          "name": "uuid",
          "type": "bytes32"
        }
      ],
      "name": "removeVerification",
      "outputs": [],
      "stateMutability": "nonpayable",
      "type": "function"
    },
    {
      "inputs": [
        {
          "internalType": "address",
          "name": "verifierAddress",
          "type": "address"
        }
      ],
      "name": "removeVerifier",
      "outputs": [],
      "stateMutability": "nonpayable",
      "type": "function"
    },
    {
      "inputs": [],
      "name": "renounceOwnership",
      "outputs": [],
      "stateMutability": "nonpayable",
      "type": "function"
    },
    {
      "inputs": [
        {
          "internalType": "bytes32",
          "name": "uuid",
          "type": "bytes32"
        }
      ],
      "name": "revokeVerification",
      "outputs": [],
      "stateMutability": "nonpayable",
      "type": "function"
    },
    {
      "inputs": [
        {
          "internalType": "uint256",
          "name": "t",
          "type": "uint256"
        }
      ],
      "name": "setThreshold",
      "outputs": [],
      "stateMutability": "nonpayable",
      "type": "function"
    },
    {
      "inputs": [],
      "name": "symbol",
      "outputs": [
        {
          "internalType": "string",
          "name": "",
          "type": "string"
        }
      ],
      "stateMutability": "view",
      "type": "function"
    },
    {
      "inputs": [],
      "name": "totalSupply",
      "outputs": [
        {
          "internalType": "uint256",
          "name": "",
          "type": "uint256"
        }
      ],
      "stateMutability": "view",
      "type": "function"
    },
    {
      "inputs": [
        {
          "internalType": "address",
          "name": "to",
          "type": "address"
        },
        {
          "internalType": "uint256",
          "name": "amount",
          "type": "uint256"
        }
      ],
      "name": "transfer",
      "outputs": [
        {
          "internalType": "bool",
          "name": "",
          "type": "bool"
        }
      ],
      "stateMutability": "nonpayable",
      "type": "function"
    },
    {
      "inputs": [
        {
          "internalType": "address",
          "name": "from",
          "type": "address"
        },
        {
          "internalType": "address",
          "name": "to",
          "type": "address"
        },
        {
          "internalType": "uint256",
          "name": "amount",
          "type": "uint256"
        }
      ],
      "name": "transferFrom",
      "outputs": [
        {
          "internalType": "bool",
          "name": "",
          "type": "bool"
        }
      ],
      "stateMutability": "nonpayable",
      "type": "function"
    },
    {
      "inputs": [
        {
          "internalType": "address",
          "name": "newOwner",
          "type": "address"
        }
      ],
      "name": "transferOwnership",
      "outputs": [],
      "stateMutability": "nonpayable",
      "type": "function"
    },
    {
      "inputs": [
        {
          "internalType": "address",
          "name": "verifierAddress",
          "type": "address"
        },
        {
          "components": [
            {
              "internalType": "bytes32",
              "name": "name",
              "type": "bytes32"
            },
            {
              "internalType": "string",
              "name": "did",
              "type": "string"
            },
            {
              "internalType": "string",
              "name": "url",
              "type": "string"
            },
            {
              "internalType": "address",
              "name": "signer",
              "type": "address"
            }
          ],
          "internalType": "struct VerifierInfo",
          "name": "verifierInfo",
          "type": "tuple"
        }
      ],
      "name": "updateVerifier",
      "outputs": [],
      "stateMutability": "nonpayable",
      "type": "function"
    },
    {
      "inputs": [
        {
          "internalType": "address",
          "name": "to",
          "type": "address"
        },
        {
          "internalType": "uint256",
          "name": "amount",
          "type": "uint256"
        },
        {
          "components": [
            {
              "internalType": "string",
              "name": "schema",
              "type": "string"
            },
            {
              "internalType": "address",
              "name": "subject",
              "type": "address"
            },
            {
              "internalType": "uint256",
              "name": "expiration",
              "type": "uint256"
            }
          ],
          "internalType": "struct VerificationResult",
          "name": "verificationResult",
          "type": "tuple"
        },
        {
          "internalType": "bytes",
          "name": "signature",
          "type": "bytes"
        }
      ],
      "name": "validateAndTransfer",
      "outputs": [],
      "stateMutability": "nonpayable",
      "type": "function"
    }
  ],
  "bytecode": "0x610140604052600a600d553480156200001757600080fd5b50604051620060f3380380620060f383398181016040528101906200003d919062000737565b6040518060400160405280601481526020017f566572696669636174696f6e52656769737472790000000000000000000000008152506040518060400160405280600381526020017f312e3000000000000000000000000000000000000000000000000000000000008152506040518060400160405280601681526020017f5468726573686f6c64204578616d706c6520436f696e000000000000000000008152506040518060400160405280600581526020017f544855534400000000000000000000000000000000000000000000000000000081525081600390805190602001906200012d9291906200062d565b508060049080519060200190620001469291906200062d565b505050620001696200015d6200023760201b60201c565b6200023f60201b60201c565b60008280519060200120905060008280519060200120905060007f8b73c3c69bb8fe3d512ecc4cf759cc79239f7b179b0ffacaa9a75d522b39400f90508260e081815250508161010081815250504660a08181525050620001d28184846200030560201b60201c565b608081815250503073ffffffffffffffffffffffffffffffffffffffff1660c08173ffffffffffffffffffffffffffffffffffffffff1660601b8152505080610120818152505050505050506200023033826200034160201b60201c565b5062000ae7565b600033905090565b6000600560009054906101000a900473ffffffffffffffffffffffffffffffffffffffff16905081600560006101000a81548173ffffffffffffffffffffffffffffffffffffffff021916908373ffffffffffffffffffffffffffffffffffffffff1602179055508173ffffffffffffffffffffffffffffffffffffffff168173ffffffffffffffffffffffffffffffffffffffff167f8be0079c531659141344cd1fd0a4f28419497f9722a3daafe3b4186f6b6457e060405160405180910390a35050565b600083838346306040516020016200032295949392919062000801565b6040516020818303038152906040528051906020012090509392505050565b600073ffffffffffffffffffffffffffffffffffffffff168273ffffffffffffffffffffffffffffffffffffffff161415620003b4576040517f08c379a0000000000000000000000000000000000000000000000000000000008152600401620003ab9062000880565b60405180910390fd5b620003c860008383620004ba60201b60201c565b8060026000828254620003dc9190620008d0565b92505081905550806000808473ffffffffffffffffffffffffffffffffffffffff1673ffffffffffffffffffffffffffffffffffffffff1681526020019081526020016000206000828254620004339190620008d0565b925050819055508173ffffffffffffffffffffffffffffffffffffffff16600073ffffffffffffffffffffffffffffffffffffffff167fddf252ad1be2c89b69c2b068fc378daa952ba7f163c4a11628f55a4df523b3ef836040516200049a9190620008a2565b60405180910390a3620004b660008383620005f960201b60201c565b5050565b620004d2838383620005fe60201b620023781760201c565b3373ffffffffffffffffffffffffffffffffffffffff16620004f96200060360201b60201c565b73ffffffffffffffffffffffffffffffffffffffff1614620005f457600d54811080620005b157503073ffffffffffffffffffffffffffffffffffffffff1663b9209e33846040518263ffffffff1660e01b81526004016200055c9190620007e4565b60206040518083038186803b1580156200057557600080fd5b505afa1580156200058a573d6000803e3d6000fd5b505050506040513d601f19601f82011682018060405250810190620005b091906200070b565b5b620005f3576040517f08c379a0000000000000000000000000000000000000000000000000000000008152600401620005ea906200085e565b60405180910390fd5b5b505050565b505050565b505050565b6000600560009054906101000a900473ffffffffffffffffffffffffffffffffffffffff16905090565b8280546200063b9062000981565b90600052602060002090601f0160209004810192826200065f5760008555620006ab565b82601f106200067a57805160ff1916838001178555620006ab565b82800160010185558215620006ab579182015b82811115620006aa5782518255916020019190600101906200068d565b5b509050620006ba9190620006be565b5090565b5b80821115620006d9576000816000905550600101620006bf565b5090565b600081519050620006ee8162000ab3565b92915050565b600081519050620007058162000acd565b92915050565b6000602082840312156200071e57600080fd5b60006200072e84828501620006dd565b91505092915050565b6000602082840312156200074a57600080fd5b60006200075a84828501620006f4565b91505092915050565b6200076e816200092d565b82525050565b6200077f816200094d565b82525050565b600062000794604483620008bf565b9150620007a18262000a15565b606082019050919050565b6000620007bb601f83620008bf565b9150620007c88262000a8a565b602082019050919050565b620007de8162000977565b82525050565b6000602082019050620007fb600083018462000763565b92915050565b600060a08201905062000818600083018862000774565b62000827602083018762000774565b62000836604083018662000774565b620008456060830185620007d3565b62000854608083018462000763565b9695505050505050565b60006020820190508181036000830152620008798162000785565b9050919050565b600060208201905081810360008301526200089b81620007ac565b9050919050565b6000602082019050620008b96000830184620007d3565b92915050565b600082825260208201905092915050565b6000620008dd8262000977565b9150620008ea8362000977565b9250827fffffffffffffffffffffffffffffffffffffffffffffffffffffffffffffffff03821115620009225762000921620009b7565b5b828201905092915050565b60006200093a8262000957565b9050919050565b60008115159050919050565b6000819050919050565b600073ffffffffffffffffffffffffffffffffffffffff82169050919050565b6000819050919050565b600060028204905060018216806200099a57607f821691505b60208210811415620009b157620009b0620009e6565b5b50919050565b7f4e487b7100000000000000000000000000000000000000000000000000000000600052601160045260246000fd5b7f4e487b7100000000000000000000000000000000000000000000000000000000600052602260045260246000fd5b7f5468726573686f6c64546f6b656e3a205472616e7366657273206f662074686960008201527f7320616d6f756e7420726571756972652073656e64657220766572696669636160208201527f74696f6e00000000000000000000000000000000000000000000000000000000604082015250565b7f45524332303a206d696e7420746f20746865207a65726f206164647265737300600082015250565b62000abe8162000941565b811462000aca57600080fd5b50565b62000ad88162000977565b811462000ae457600080fd5b50565b60805160a05160c05160601c60e05161010051610120516155b962000b3a600039600061314601526000613188015260006131670152600061309c015260006130f20152600061311b01526155b96000f3fe608060405234801561001057600080fd5b50600436106101e55760003560e01c8063715018a61161010f578063a9059cbb116100a2578063dd62ed3e11610071578063dd62ed3e146105ca578063e75235b8146105fa578063ed2ffd2814610618578063f2fde38b14610648576101e5565b8063a9059cbb14610530578063b9209e3314610560578063b9c688a714610590578063ca2dfd0a146105ae576101e5565b806395d89b41116100de57806395d89b41146104aa578063960bfe04146104c857806399cf1a1d146104e4578063a457c2d714610500576101e5565b8063715018a6146104225780638da5cb5b1461042c57806394ef24401461044a578063958c39ff1461047a576101e5565b806323b872dd11610187578063417469a711610156578063417469a71461039e5780634e4de26d146103ba57806370a08231146103d657806370eba12414610406576101e5565b806323b872dd146102f0578063313ce56714610320578063331052181461033e578063395093511461036e576101e5565b8063095ea7b3116101c3578063095ea7b3146102545780630e9e848f1461028457806318160ddd146102b45780631f05b374146102d2576101e5565b806302d69020146101ea578063059ce95d1461020657806306fdde0314610236575b600080fd5b61020460048036038101906101ff9190613bde565b610664565b005b610220600480360381019061021b9190613a9a565b61070e565b60405161022d919061496d565b60405180910390f35b61023e610973565b60405161024b9190614610565b60405180910390f35b61026e60048036038101906102699190613ba2565b610a05565b60405161027b91906144fd565b60405180910390f35b61029e60048036038101906102999190613a9a565b610a28565b6040516102ab91906144db565b60405180910390f35b6102bc610d62565b6040516102c9919061498f565b60405180910390f35b6102da610d6c565b6040516102e7919061498f565b60405180910390f35b61030a60048036038101906103059190613aff565b610d76565b60405161031791906144fd565b60405180910390f35b610328610da5565b60405161033591906149aa565b60405180910390f35b61035860048036038101906103539190613a9a565b610dae565b60405161036591906144fd565b60405180910390f35b61038860048036038101906103839190613ba2565b610e00565b60405161039591906144fd565b60405180910390f35b6103b860048036038101906103b39190613b4e565b610e37565b005b6103d460048036038101906103cf9190613c9a565b611054565b005b6103f060048036038101906103eb9190613a9a565b61124a565b6040516103fd919061498f565b60405180910390f35b610420600480360381019061041b9190613c9a565b611292565b005b61042a611427565b005b61043461143b565b6040516104419190614490565b60405180910390f35b610464600480360381019061045f9190613c9a565b611465565b6040516104719190614952565b60405180910390f35b610494600480360381019061048f9190613cc3565b611577565b6040516104a19190614952565b60405180910390f35b6104b26116da565b6040516104bf9190614610565b60405180910390f35b6104e260048036038101906104dd9190613d2f565b61176c565b005b6104fe60048036038101906104f99190613b4e565b61177e565b005b61051a60048036038101906105159190613ba2565b6119b2565b60405161052791906144fd565b60405180910390f35b61054a60048036038101906105459190613ba2565b611a29565b60405161055791906144fd565b60405180910390f35b61057a60048036038101906105759190613a9a565b611a4c565b60405161058791906144fd565b60405180910390f35b610598611ce8565b6040516105a5919061498f565b60405180910390f35b6105c860048036038101906105c39190613a9a565b611cf2565b005b6105e460048036038101906105df9190613ac3565b611f29565b6040516105f1919061498f565b60405180910390f35b610602611fb0565b60405161060f919061498f565b60405180910390f35b610632600480360381019061062d9190613a9a565b611fba565b60405161063f91906144db565b60405180910390f35b610662600480360381019061065d9190613a9a565b6122f4565b005b3073ffffffffffffffffffffffffffffffffffffffff1663b9209e33336040518263ffffffff1660e01b815260040161069d9190614490565b60206040518083038186803b1580156106b557600080fd5b505afa1580156106c9573d6000803e3d6000fd5b505050506040513d601f19601f820116820180604052508101906106ed9190613c71565b6106fd576106fb828261237d565b505b6107078484611a29565b5050505050565b6107166136cf565b6000801b600660008473ffffffffffffffffffffffffffffffffffffffff1673ffffffffffffffffffffffffffffffffffffffff16815260200190815260200160002060000154141561079e576040517f08c379a000000000000000000000000000000000000000000000000000000000815260040161079590614852565b60405180910390fd5b600660008373ffffffffffffffffffffffffffffffffffffffff1673ffffffffffffffffffffffffffffffffffffffff1681526020019081526020016000206040518060800160405290816000820154815260200160018201805461080290614bde565b80601f016020809104026020016040519081016040528092919081815260200182805461082e90614bde565b801561087b5780601f106108505761010080835404028352916020019161087b565b820191906000526020600020905b81548152906001019060200180831161085e57829003601f168201915b5050505050815260200160028201805461089490614bde565b80601f01602080910402602001604051908101604052809291908181526020018280546108c090614bde565b801561090d5780601f106108e25761010080835404028352916020019161090d565b820191906000526020600020905b8154815290600101906020018083116108f057829003601f168201915b505050505081526020016003820160009054906101000a900473ffffffffffffffffffffffffffffffffffffffff1673ffffffffffffffffffffffffffffffffffffffff1673ffffffffffffffffffffffffffffffffffffffff16815250509050919050565b60606003805461098290614bde565b80601f01602080910402602001604051908101604052809291908181526020018280546109ae90614bde565b80156109fb5780601f106109d0576101008083540402835291602001916109fb565b820191906000526020600020905b8154815290600101906020018083116109de57829003601f168201915b5050505050905090565b600080610a10612458565b9050610a1d818585612460565b600191505092915050565b6060600073ffffffffffffffffffffffffffffffffffffffff168273ffffffffffffffffffffffffffffffffffffffff161415610a9a576040517f08c379a0000000000000000000000000000000000000000000000000000000008152600401610a9190614912565b60405180910390fd5b6000600b60008473ffffffffffffffffffffffffffffffffffffffff1673ffffffffffffffffffffffffffffffffffffffff168152602001908152602001600020805480602002602001604051908101604052809291908181526020018280548015610b2557602002820191906000526020600020905b815481526020019060010190808311610b11575b505050505090506000815167ffffffffffffffff811115610b6f577f4e487b7100000000000000000000000000000000000000000000000000000000600052604160045260246000fd5b604051908082528060200260200182016040528015610ba857816020015b610b95613710565b815260200190600190039081610b8d5790505b50905060005b8251811015610d5757600060096000858481518110610bf6577f4e487b7100000000000000000000000000000000000000000000000000000000600052603260045260246000fd5b602002602001015181526020019081526020016000206040518060c0016040529081600082015481526020016001820160009054906101000a900473ffffffffffffffffffffffffffffffffffffffff1673ffffffffffffffffffffffffffffffffffffffff1673ffffffffffffffffffffffffffffffffffffffff1681526020016002820160009054906101000a900473ffffffffffffffffffffffffffffffffffffffff1673ffffffffffffffffffffffffffffffffffffffff1673ffffffffffffffffffffffffffffffffffffffff16815260200160038201548152602001600482015481526020016005820160009054906101000a900460ff161515151581525050905080838381518110610d38577f4e487b7100000000000000000000000000000000000000000000000000000000600052603260045260246000fd5b6020026020010181905250508080610d4f90614c41565b915050610bae565b508092505050919050565b6000600254905090565b6000600c54905090565b600080610d81612458565b9050610d8e85828561262b565b610d998585856126b7565b60019150509392505050565b60006012905090565b60008060001b600660008473ffffffffffffffffffffffffffffffffffffffff1673ffffffffffffffffffffffffffffffffffffffff1681526020019081526020016000206000015414159050919050565b600080610e0b612458565b9050610e2c818585610e1d8589611f29565b610e279190614abd565b612460565b600191505092915050565b610e3f612938565b6000801b600660008473ffffffffffffffffffffffffffffffffffffffff1673ffffffffffffffffffffffffffffffffffffffff168152602001908152602001600020600001541415610ec7576040517f08c379a0000000000000000000000000000000000000000000000000000000008152600401610ebe90614852565b60405180910390fd5b80600660008473ffffffffffffffffffffffffffffffffffffffff1673ffffffffffffffffffffffffffffffffffffffff168152602001908152602001600020600082015181600001556020820151816001019080519060200190610f2d929190613777565b506040820151816002019080519060200190610f4a929190613777565b5060608201518160030160006101000a81548173ffffffffffffffffffffffffffffffffffffffff021916908373ffffffffffffffffffffffffffffffffffffffff1602179055509050508160076000836060015173ffffffffffffffffffffffffffffffffffffffff1673ffffffffffffffffffffffffffffffffffffffff16815260200190815260200160002060006101000a81548173ffffffffffffffffffffffffffffffffffffffff021916908373ffffffffffffffffffffffffffffffffffffffff1602179055507fcf8ca726ba9d58efa48fa96d3184c211fcce84e8b5e9a3c83c10c1ba9fd392c682826040516110489291906144ab565b60405180910390a15050565b6000801b600660003373ffffffffffffffffffffffffffffffffffffffff1673ffffffffffffffffffffffffffffffffffffffff1681526020019081526020016000206000015414156110dc576040517f08c379a00000000000000000000000000000000000000000000000000000000081526004016110d390614712565b60405180910390fd5b3373ffffffffffffffffffffffffffffffffffffffff166009600083815260200190815260200160002060010160009054906101000a900473ffffffffffffffffffffffffffffffffffffffff1673ffffffffffffffffffffffffffffffffffffffff1614611180576040517f08c379a000000000000000000000000000000000000000000000000000000000815260040161117790614872565b60405180910390fd5b600960008281526020019081526020016000206000808201600090556001820160006101000a81549073ffffffffffffffffffffffffffffffffffffffff02191690556002820160006101000a81549073ffffffffffffffffffffffffffffffffffffffff0219169055600382016000905560048201600090556005820160006101000a81549060ff021916905550507f9abf56d49e4ef717f3418600d3ed66048ca2ed8e3e630a70b76a71dd2142def58160405161123f9190614518565b60405180910390a150565b60008060008373ffffffffffffffffffffffffffffffffffffffff1673ffffffffffffffffffffffffffffffffffffffff168152602001908152602001600020549050919050565b6000801b600660003373ffffffffffffffffffffffffffffffffffffffff1673ffffffffffffffffffffffffffffffffffffffff16815260200190815260200160002060000154141561131a576040517f08c379a000000000000000000000000000000000000000000000000000000000815260040161131190614712565b60405180910390fd5b3373ffffffffffffffffffffffffffffffffffffffff166009600083815260200190815260200160002060010160009054906101000a900473ffffffffffffffffffffffffffffffffffffffff1673ffffffffffffffffffffffffffffffffffffffff16146113be576040517f08c379a00000000000000000000000000000000000000000000000000000000081526004016113b5906148d2565b60405180910390fd5b60016009600083815260200190815260200160002060050160006101000a81548160ff0219169083151502179055507f071ad1bb208a373a52e72fe5d8aa7755d658f88e197e666bf1a6d09d0ddb50568160405161141c9190614518565b60405180910390a150565b61142f612938565b61143960006129b6565b565b6000600560009054906101000a900473ffffffffffffffffffffffffffffffffffffffff16905090565b61146d613710565b600960008381526020019081526020016000206040518060c0016040529081600082015481526020016001820160009054906101000a900473ffffffffffffffffffffffffffffffffffffffff1673ffffffffffffffffffffffffffffffffffffffff1673ffffffffffffffffffffffffffffffffffffffff1681526020016002820160009054906101000a900473ffffffffffffffffffffffffffffffffffffffff1673ffffffffffffffffffffffffffffffffffffffff1673ffffffffffffffffffffffffffffffffffffffff16815260200160038201548152602001600482015481526020016005820160009054906101000a900460ff1615151515815250509050919050565b61157f613710565b6000801b600660003373ffffffffffffffffffffffffffffffffffffffff1673ffffffffffffffffffffffffffffffffffffffff168152602001908152602001600020600001541415611607576040517f08c379a00000000000000000000000000000000000000000000000000000000081526004016115fe90614712565b60405180910390fd5b61161083612a7c565b600061161c8484612a7f565b90503373ffffffffffffffffffffffffffffffffffffffff16816020015173ffffffffffffffffffffffffffffffffffffffff1614611690576040517f08c379a000000000000000000000000000000000000000000000000000000000815260040161168790614752565b60405180910390fd5b61169981612d0b565b7fb13e5e7efcce7bbc67740f0fe050563d4fd1f5cc7096c3a32cb901711c95ab54816040516116c89190614952565b60405180910390a18091505092915050565b6060600480546116e990614bde565b80601f016020809104026020016040519081016040528092919081815260200182805461171590614bde565b80156117625780601f1061173757610100808354040283529160200191611762565b820191906000526020600020905b81548152906001019060200180831161174557829003601f168201915b5050505050905090565b611774612938565b80600d8190555050565b611786612938565b6000801b600660008473ffffffffffffffffffffffffffffffffffffffff1673ffffffffffffffffffffffffffffffffffffffff168152602001908152602001600020600001541461180d576040517f08c379a0000000000000000000000000000000000000000000000000000000008152600401611804906147b2565b60405180910390fd5b80600660008473ffffffffffffffffffffffffffffffffffffffff1673ffffffffffffffffffffffffffffffffffffffff168152602001908152602001600020600082015181600001556020820151816001019080519060200190611873929190613777565b506040820151816002019080519060200190611890929190613777565b5060608201518160030160006101000a81548173ffffffffffffffffffffffffffffffffffffffff021916908373ffffffffffffffffffffffffffffffffffffffff1602179055509050508160076000836060015173ffffffffffffffffffffffffffffffffffffffff1673ffffffffffffffffffffffffffffffffffffffff16815260200190815260200160002060006101000a81548173ffffffffffffffffffffffffffffffffffffffff021916908373ffffffffffffffffffffffffffffffffffffffff1602179055506008600081548092919061197090614c41565b91905055507f57fdb74cb7ec2177b327961b74feef54dcb8102656cf6484ea992a84eb1bb4d082826040516119a69291906144ab565b60405180910390a15050565b6000806119bd612458565b905060006119cb8286611f29565b905083811015611a10576040517f08c379a0000000000000000000000000000000000000000000000000000000008152600401611a0790614932565b60405180910390fd5b611a1d8286868403612460565b60019250505092915050565b600080611a34612458565b9050611a418185856126b7565b600191505092915050565b60008073ffffffffffffffffffffffffffffffffffffffff168273ffffffffffffffffffffffffffffffffffffffff161415611abd576040517f08c379a0000000000000000000000000000000000000000000000000000000008152600401611ab490614912565b60405180910390fd5b6000600a60008473ffffffffffffffffffffffffffffffffffffffff1673ffffffffffffffffffffffffffffffffffffffff168152602001908152602001600020805480602002602001604051908101604052809291908181526020018280548015611b4857602002820191906000526020600020905b815481526020019060010190808311611b34575b5050505050905060005b8151811015611cdc57600060096000848481518110611b9a577f4e487b7100000000000000000000000000000000000000000000000000000000600052603260045260246000fd5b602002602001015181526020019081526020016000206040518060c0016040529081600082015481526020016001820160009054906101000a900473ffffffffffffffffffffffffffffffffffffffff1673ffffffffffffffffffffffffffffffffffffffff1673ffffffffffffffffffffffffffffffffffffffff1681526020016002820160009054906101000a900473ffffffffffffffffffffffffffffffffffffffff1673ffffffffffffffffffffffffffffffffffffffff1673ffffffffffffffffffffffffffffffffffffffff16815260200160038201548152602001600482015481526020016005820160009054906101000a900460ff16151515158152505090508060a00151158015611cb75750428160800151115b15611cc85760019350505050611ce3565b508080611cd490614c41565b915050611b52565b5060009150505b919050565b6000600854905090565b611cfa612938565b6000801b600660008373ffffffffffffffffffffffffffffffffffffffff1673ffffffffffffffffffffffffffffffffffffffff168152602001908152602001600020600001541415611d82576040517f08c379a0000000000000000000000000000000000000000000000000000000008152600401611d79906147d2565b60405180910390fd5b60076000600660008473ffffffffffffffffffffffffffffffffffffffff1673ffffffffffffffffffffffffffffffffffffffff16815260200190815260200160002060030160009054906101000a900473ffffffffffffffffffffffffffffffffffffffff1673ffffffffffffffffffffffffffffffffffffffff1673ffffffffffffffffffffffffffffffffffffffff16815260200190815260200160002060006101000a81549073ffffffffffffffffffffffffffffffffffffffff0219169055600660008273ffffffffffffffffffffffffffffffffffffffff1673ffffffffffffffffffffffffffffffffffffffff168152602001908152602001600020600080820160009055600182016000611e9e91906137fd565b600282016000611eae91906137fd565b6003820160006101000a81549073ffffffffffffffffffffffffffffffffffffffff0219169055505060086000815480929190611eea90614bb4565b91905055507f44a3cd4eb5cc5748f6169df057b1cb2ae4c383e87cd94663c430e095d4cba42481604051611f1e9190614490565b60405180910390a150565b6000600160008473ffffffffffffffffffffffffffffffffffffffff1673ffffffffffffffffffffffffffffffffffffffff16815260200190815260200160002060008373ffffffffffffffffffffffffffffffffffffffff1673ffffffffffffffffffffffffffffffffffffffff16815260200190815260200160002054905092915050565b6000600d54905090565b6060600073ffffffffffffffffffffffffffffffffffffffff168273ffffffffffffffffffffffffffffffffffffffff16141561202c576040517f08c379a000000000000000000000000000000000000000000000000000000000815260040161202390614912565b60405180910390fd5b6000600a60008473ffffffffffffffffffffffffffffffffffffffff1673ffffffffffffffffffffffffffffffffffffffff1681526020019081526020016000208054806020026020016040519081016040528092919081815260200182805480156120b757602002820191906000526020600020905b8154815260200190600101908083116120a3575b505050505090506000815167ffffffffffffffff811115612101577f4e487b7100000000000000000000000000000000000000000000000000000000600052604160045260246000fd5b60405190808252806020026020018201604052801561213a57816020015b612127613710565b81526020019060019003908161211f5790505b50905060005b82518110156122e957600060096000858481518110612188577f4e487b7100000000000000000000000000000000000000000000000000000000600052603260045260246000fd5b602002602001015181526020019081526020016000206040518060c0016040529081600082015481526020016001820160009054906101000a900473ffffffffffffffffffffffffffffffffffffffff1673ffffffffffffffffffffffffffffffffffffffff1673ffffffffffffffffffffffffffffffffffffffff1681526020016002820160009054906101000a900473ffffffffffffffffffffffffffffffffffffffff1673ffffffffffffffffffffffffffffffffffffffff1673ffffffffffffffffffffffffffffffffffffffff16815260200160038201548152602001600482015481526020016005820160009054906101000a900460ff1615151515815250509050808383815181106122ca577f4e487b7100000000000000000000000000000000000000000000000000000000600052603260045260246000fd5b60200260200101819052505080806122e190614c41565b915050612140565b508092505050919050565b6122fc612938565b600073ffffffffffffffffffffffffffffffffffffffff168173ffffffffffffffffffffffffffffffffffffffff16141561236c576040517f08c379a0000000000000000000000000000000000000000000000000000000008152600401612363906146d2565b60405180910390fd5b612375816129b6565b50565b505050565b612385613710565b3373ffffffffffffffffffffffffffffffffffffffff16836020015173ffffffffffffffffffffffffffffffffffffffff16146123f7576040517f08c379a00000000000000000000000000000000000000000000000000000000081526004016123ee906147f2565b60405180910390fd5b61240083612a7c565b600061240c8484612a7f565b905061241781612d0b565b7fb13e5e7efcce7bbc67740f0fe050563d4fd1f5cc7096c3a32cb901711c95ab54816040516124469190614952565b60405180910390a18091505092915050565b600033905090565b600073ffffffffffffffffffffffffffffffffffffffff168373ffffffffffffffffffffffffffffffffffffffff1614156124d0576040517f08c379a00000000000000000000000000000000000000000000000000000000081526004016124c7906148f2565b60405180910390fd5b600073ffffffffffffffffffffffffffffffffffffffff168273ffffffffffffffffffffffffffffffffffffffff161415612540576040517f08c379a0000000000000000000000000000000000000000000000000000000008152600401612537906146f2565b60405180910390fd5b80600160008573ffffffffffffffffffffffffffffffffffffffff1673ffffffffffffffffffffffffffffffffffffffff16815260200190815260200160002060008473ffffffffffffffffffffffffffffffffffffffff1673ffffffffffffffffffffffffffffffffffffffff168152602001908152602001600020819055508173ffffffffffffffffffffffffffffffffffffffff168373ffffffffffffffffffffffffffffffffffffffff167f8c5be1e5ebec7d5bd14f71427d1e84f3dd0314c0f7b2291e5b200ac8c7c3b9258360405161261e919061498f565b60405180910390a3505050565b60006126378484611f29565b90507fffffffffffffffffffffffffffffffffffffffffffffffffffffffffffffffff81146126b157818110156126a3576040517f08c379a000000000000000000000000000000000000000000000000000000000815260040161269a90614732565b60405180910390fd5b6126b08484848403612460565b5b50505050565b600073ffffffffffffffffffffffffffffffffffffffff168373ffffffffffffffffffffffffffffffffffffffff161415612727576040517f08c379a000000000000000000000000000000000000000000000000000000000815260040161271e906148b2565b60405180910390fd5b600073ffffffffffffffffffffffffffffffffffffffff168273ffffffffffffffffffffffffffffffffffffffff161415612797576040517f08c379a000000000000000000000000000000000000000000000000000000000815260040161278e90614672565b60405180910390fd5b6127a2838383612ee9565b60008060008573ffffffffffffffffffffffffffffffffffffffff1673ffffffffffffffffffffffffffffffffffffffff16815260200190815260200160002054905081811015612828576040517f08c379a000000000000000000000000000000000000000000000000000000000815260040161281f90614772565b60405180910390fd5b8181036000808673ffffffffffffffffffffffffffffffffffffffff1673ffffffffffffffffffffffffffffffffffffffff16815260200190815260200160002081905550816000808573ffffffffffffffffffffffffffffffffffffffff1673ffffffffffffffffffffffffffffffffffffffff16815260200190815260200160002060008282546128bb9190614abd565b925050819055508273ffffffffffffffffffffffffffffffffffffffff168473ffffffffffffffffffffffffffffffffffffffff167fddf252ad1be2c89b69c2b068fc378daa952ba7f163c4a11628f55a4df523b3ef8460405161291f919061498f565b60405180910390a3612932848484613008565b50505050565b612940612458565b73ffffffffffffffffffffffffffffffffffffffff1661295e61143b565b73ffffffffffffffffffffffffffffffffffffffff16146129b4576040517f08c379a00000000000000000000000000000000000000000000000000000000081526004016129ab90614832565b60405180910390fd5b565b6000600560009054906101000a900473ffffffffffffffffffffffffffffffffffffffff16905081600560006101000a81548173ffffffffffffffffffffffffffffffffffffffff021916908373ffffffffffffffffffffffffffffffffffffffff1602179055508173ffffffffffffffffffffffffffffffffffffffff168173ffffffffffffffffffffffffffffffffffffffff167f8be0079c531659141344cd1fd0a4f28419497f9722a3daafe3b4186f6b6457e060405160405180910390a35050565b50565b612a87613710565b6000612af17f10f37c780798f8d6ccc5deba550b287b1ccef3a50b9007536dc9ce57c6f0668385600001518051906020012086602001518760400151604051602001612ad69493929190614533565b6040516020818303038152906040528051906020012061300d565b90506000612aff8285613027565b90506000600760008373ffffffffffffffffffffffffffffffffffffffff1673ffffffffffffffffffffffffffffffffffffffff16815260200190815260200160002060009054906101000a900473ffffffffffffffffffffffffffffffffffffffff1690508173ffffffffffffffffffffffffffffffffffffffff16600660008373ffffffffffffffffffffffffffffffffffffffff1673ffffffffffffffffffffffffffffffffffffffff16815260200190815260200160002060030160009054906101000a900473ffffffffffffffffffffffffffffffffffffffff1673ffffffffffffffffffffffffffffffffffffffff1614612c35576040517f08c379a0000000000000000000000000000000000000000000000000000000008152600401612c2c90614892565b60405180910390fd5b42866040015111612c7b576040517f08c379a0000000000000000000000000000000000000000000000000000000008152600401612c7290614692565b60405180910390fd5b60006040518060c001604052806000801b81526020018373ffffffffffffffffffffffffffffffffffffffff168152602001886020015173ffffffffffffffffffffffffffffffffffffffff168152602001428152602001886040015181526020016000151581525090506000612cf18261304e565b905080826000018181525050819550505050505092915050565b600c6000815480929190612d1e90614c41565b91905055508060096000836000015181526020019081526020016000206000820151816000015560208201518160010160006101000a81548173ffffffffffffffffffffffffffffffffffffffff021916908373ffffffffffffffffffffffffffffffffffffffff16021790555060408201518160020160006101000a81548173ffffffffffffffffffffffffffffffffffffffff021916908373ffffffffffffffffffffffffffffffffffffffff160217905550606082015181600301556080820151816004015560a08201518160050160006101000a81548160ff021916908315150217905550905050600a6000826040015173ffffffffffffffffffffffffffffffffffffffff1673ffffffffffffffffffffffffffffffffffffffff16815260200190815260200160002081600001519080600181540180825580915050600190039060005260206000200160009091909190915055600b6000826020015173ffffffffffffffffffffffffffffffffffffffff1673ffffffffffffffffffffffffffffffffffffffff1681526020019081526020016000208160000151908060018154018082558091505060019003906000526020600020016000909190919091505550565b612ef4838383612378565b3373ffffffffffffffffffffffffffffffffffffffff16612f1361143b565b73ffffffffffffffffffffffffffffffffffffffff161461300357600d54811080612fc357503073ffffffffffffffffffffffffffffffffffffffff1663b9209e33846040518263ffffffff1660e01b8152600401612f729190614490565b60206040518083038186803b158015612f8a57600080fd5b505afa158015612f9e573d6000803e3d6000fd5b505050506040513d601f19601f82011682018060405250810190612fc29190613c71565b5b613002576040517f08c379a0000000000000000000000000000000000000000000000000000000008152600401612ff990614652565b60405180910390fd5b5b505050565b505050565b600061302061301a613098565b836131b2565b9050919050565b600080600061303685856131e5565b9150915061304381613237565b819250505092915050565b60008160200151826040015183606001518460800151600c5460405160200161307b9594939291906143fa565b604051602081830303815290604052805190602001209050919050565b60007f000000000000000000000000000000000000000000000000000000000000000073ffffffffffffffffffffffffffffffffffffffff163073ffffffffffffffffffffffffffffffffffffffff1614801561311457507f000000000000000000000000000000000000000000000000000000000000000046145b15613141577f000000000000000000000000000000000000000000000000000000000000000090506131af565b6131ac7f00000000000000000000000000000000000000000000000000000000000000007f00000000000000000000000000000000000000000000000000000000000000007f0000000000000000000000000000000000000000000000000000000000000000613588565b90505b90565b600082826040516020016131c7929190614459565b60405160208183030381529060405280519060200120905092915050565b6000806041835114156132275760008060006020860151925060408601519150606086015160001a905061321b878285856135c2565b94509450505050613230565b60006002915091505b9250929050565b60006004811115613271577f4e487b7100000000000000000000000000000000000000000000000000000000600052602160045260246000fd5b8160048111156132aa577f4e487b7100000000000000000000000000000000000000000000000000000000600052602160045260246000fd5b14156132b557613585565b600160048111156132ef577f4e487b7100000000000000000000000000000000000000000000000000000000600052602160045260246000fd5b816004811115613328577f4e487b7100000000000000000000000000000000000000000000000000000000600052602160045260246000fd5b1415613369576040517f08c379a000000000000000000000000000000000000000000000000000000000815260040161336090614632565b60405180910390fd5b600260048111156133a3577f4e487b7100000000000000000000000000000000000000000000000000000000600052602160045260246000fd5b8160048111156133dc577f4e487b7100000000000000000000000000000000000000000000000000000000600052602160045260246000fd5b141561341d576040517f08c379a0000000000000000000000000000000000000000000000000000000008152600401613414906146b2565b60405180910390fd5b60036004811115613457577f4e487b7100000000000000000000000000000000000000000000000000000000600052602160045260246000fd5b816004811115613490577f4e487b7100000000000000000000000000000000000000000000000000000000600052602160045260246000fd5b14156134d1576040517f08c379a00000000000000000000000000000000000000000000000000000000081526004016134c890614792565b60405180910390fd5b60048081111561350a577f4e487b7100000000000000000000000000000000000000000000000000000000600052602160045260246000fd5b816004811115613543577f4e487b7100000000000000000000000000000000000000000000000000000000600052602160045260246000fd5b1415613584576040517f08c379a000000000000000000000000000000000000000000000000000000000815260040161357b90614812565b60405180910390fd5b5b50565b600083838346306040516020016135a3959493929190614578565b6040516020818303038152906040528051906020012090509392505050565b6000807f7fffffffffffffffffffffffffffffff5d576e7357a4501ddfe92f46681b20a08360001c11156135fd5760006003915091506136c6565b601b8560ff16141580156136155750601c8560ff1614155b156136275760006004915091506136c6565b60006001878787876040516000815260200160405260405161364c94939291906145cb565b6020604051602081039080840390855afa15801561366e573d6000803e3d6000fd5b505050602060405103519050600073ffffffffffffffffffffffffffffffffffffffff168173ffffffffffffffffffffffffffffffffffffffff1614156136bd576000600192509250506136c6565b80600092509250505b94509492505050565b6040518060800160405280600080191681526020016060815260200160608152602001600073ffffffffffffffffffffffffffffffffffffffff1681525090565b6040518060c0016040528060008019168152602001600073ffffffffffffffffffffffffffffffffffffffff168152602001600073ffffffffffffffffffffffffffffffffffffffff16815260200160008152602001600081526020016000151581525090565b82805461378390614bde565b90600052602060002090601f0160209004810192826137a557600085556137ec565b82601f106137be57805160ff19168380011785556137ec565b828001600101855582156137ec579182015b828111156137eb5782518255916020019190600101906137d0565b5b5090506137f9919061383d565b5090565b50805461380990614bde565b6000825580601f1061381b575061383a565b601f016020900490600052602060002090810190613839919061383d565b5b50565b5b8082111561385657600081600090555060010161383e565b5090565b600061386d613868846149ea565b6149c5565b90508281526020810184848401111561388557600080fd5b613890848285614b72565b509392505050565b60006138ab6138a684614a1b565b6149c5565b9050828152602081018484840111156138c357600080fd5b6138ce848285614b72565b509392505050565b6000813590506138e581615527565b92915050565b6000815190506138fa8161553e565b92915050565b60008135905061390f81615555565b92915050565b600082601f83011261392657600080fd5b813561393684826020860161385a565b91505092915050565b600082601f83011261395057600080fd5b8135613960848260208601613898565b91505092915050565b60006060828403121561397b57600080fd5b61398560606149c5565b9050600082013567ffffffffffffffff8111156139a157600080fd5b6139ad8482850161393f565b60008301525060206139c1848285016138d6565b60208301525060406139d584828501613a85565b60408301525092915050565b6000608082840312156139f357600080fd5b6139fd60806149c5565b90506000613a0d84828501613900565b600083015250602082013567ffffffffffffffff811115613a2d57600080fd5b613a398482850161393f565b602083015250604082013567ffffffffffffffff811115613a5957600080fd5b613a658482850161393f565b6040830152506060613a79848285016138d6565b60608301525092915050565b600081359050613a948161556c565b92915050565b600060208284031215613aac57600080fd5b6000613aba848285016138d6565b91505092915050565b60008060408385031215613ad657600080fd5b6000613ae4858286016138d6565b9250506020613af5858286016138d6565b9150509250929050565b600080600060608486031215613b1457600080fd5b6000613b22868287016138d6565b9350506020613b33868287016138d6565b9250506040613b4486828701613a85565b9150509250925092565b60008060408385031215613b6157600080fd5b6000613b6f858286016138d6565b925050602083013567ffffffffffffffff811115613b8c57600080fd5b613b98858286016139e1565b9150509250929050565b60008060408385031215613bb557600080fd5b6000613bc3858286016138d6565b9250506020613bd485828601613a85565b9150509250929050565b60008060008060808587031215613bf457600080fd5b6000613c02878288016138d6565b9450506020613c1387828801613a85565b935050604085013567ffffffffffffffff811115613c3057600080fd5b613c3c87828801613969565b925050606085013567ffffffffffffffff811115613c5957600080fd5b613c6587828801613915565b91505092959194509250565b600060208284031215613c8357600080fd5b6000613c91848285016138eb565b91505092915050565b600060208284031215613cac57600080fd5b6000613cba84828501613900565b91505092915050565b60008060408385031215613cd657600080fd5b600083013567ffffffffffffffff811115613cf057600080fd5b613cfc85828601613969565b925050602083013567ffffffffffffffff811115613d1957600080fd5b613d2585828601613915565b9150509250929050565b600060208284031215613d4157600080fd5b6000613d4f84828501613a85565b91505092915050565b6000613d648383614256565b60c08301905092915050565b613d7981614b13565b82525050565b613d8881614b13565b82525050565b613d9f613d9a82614b13565b614c8a565b82525050565b6000613db082614a5c565b613dba8185614a7f565b9350613dc583614a4c565b8060005b83811015613df6578151613ddd8882613d58565b9750613de883614a72565b925050600181019050613dc9565b5085935050505092915050565b613e0c81614b25565b82525050565b613e1b81614b25565b82525050565b613e2a81614b31565b82525050565b613e3981614b31565b82525050565b613e50613e4b82614b31565b614c9c565b82525050565b6000613e6182614a67565b613e6b8185614a90565b9350613e7b818560208601614b81565b613e8481614d4f565b840191505092915050565b6000613e9a82614a67565b613ea48185614aa1565b9350613eb4818560208601614b81565b613ebd81614d4f565b840191505092915050565b6000613ed5601883614aa1565b9150613ee082614d6d565b602082019050919050565b6000613ef8604483614aa1565b9150613f0382614d96565b606082019050919050565b6000613f1b602383614aa1565b9150613f2682614e0b565b604082019050919050565b6000613f3e603783614aa1565b9150613f4982614e5a565b604082019050919050565b6000613f61601f83614aa1565b9150613f6c82614ea9565b602082019050919050565b6000613f84602683614aa1565b9150613f8f82614ed2565b604082019050919050565b6000613fa7602283614aa1565b9150613fb282614f21565b604082019050919050565b6000613fca600283614ab2565b9150613fd582614f70565b600282019050919050565b6000613fed602e83614aa1565b9150613ff882614f99565b604082019050919050565b6000614010601d83614aa1565b915061401b82614fe8565b602082019050919050565b6000614033604483614aa1565b915061403e82615011565b606082019050919050565b6000614056602683614aa1565b915061406182615086565b604082019050919050565b6000614079602283614aa1565b9150614084826150d5565b604082019050919050565b600061409c602d83614aa1565b91506140a782615124565b604082019050919050565b60006140bf603583614aa1565b91506140ca82615173565b604082019050919050565b60006140e2603883614aa1565b91506140ed826151c2565b604082019050919050565b6000614105602283614aa1565b915061411082615211565b604082019050919050565b6000614128602083614aa1565b915061413382615260565b602082019050919050565b600061414b602e83614aa1565b915061415682615289565b604082019050919050565b600061416e604983614aa1565b9150614179826152d8565b606082019050919050565b6000614191603683614aa1565b915061419c8261534d565b604082019050919050565b60006141b4602583614aa1565b91506141bf8261539c565b604082019050919050565b60006141d7603983614aa1565b91506141e2826153eb565b604082019050919050565b60006141fa602483614aa1565b91506142058261543a565b604082019050919050565b600061421d602583614aa1565b915061422882615489565b604082019050919050565b6000614240602583614aa1565b915061424b826154d8565b604082019050919050565b60c08201600082015161426c6000850182613e21565b50602082015161427f6020850182613d70565b5060408201516142926040850182613d70565b5060608201516142a560608501826143b6565b5060808201516142b860808501826143b6565b5060a08201516142cb60a0850182613e03565b50505050565b60c0820160008201516142e76000850182613e21565b5060208201516142fa6020850182613d70565b50604082015161430d6040850182613d70565b50606082015161432060608501826143b6565b50608082015161433360808501826143b6565b5060a082015161434660a0850182613e03565b50505050565b60006080830160008301516143646000860182613e21565b506020830151848203602086015261437c8282613e56565b915050604083015184820360408601526143968282613e56565b91505060608301516143ab6060860182613d70565b508091505092915050565b6143bf81614b5b565b82525050565b6143ce81614b5b565b82525050565b6143e56143e082614b5b565b614cb8565b82525050565b6143f481614b65565b82525050565b60006144068288613d8e565b6014820191506144168287613d8e565b60148201915061442682866143d4565b60208201915061443682856143d4565b60208201915061444682846143d4565b6020820191508190509695505050505050565b600061446482613fbd565b91506144708285613e3f565b6020820191506144808284613e3f565b6020820191508190509392505050565b60006020820190506144a56000830184613d7f565b92915050565b60006040820190506144c06000830185613d7f565b81810360208301526144d2818461434c565b90509392505050565b600060208201905081810360008301526144f58184613da5565b905092915050565b60006020820190506145126000830184613e12565b92915050565b600060208201905061452d6000830184613e30565b92915050565b60006080820190506145486000830187613e30565b6145556020830186613e30565b6145626040830185613d7f565b61456f60608301846143c5565b95945050505050565b600060a08201905061458d6000830188613e30565b61459a6020830187613e30565b6145a76040830186613e30565b6145b460608301856143c5565b6145c16080830184613d7f565b9695505050505050565b60006080820190506145e06000830187613e30565b6145ed60208301866143eb565b6145fa6040830185613e30565b6146076060830184613e30565b95945050505050565b6000602082019050818103600083015261462a8184613e8f565b905092915050565b6000602082019050818103600083015261464b81613ec8565b9050919050565b6000602082019050818103600083015261466b81613eeb565b9050919050565b6000602082019050818103600083015261468b81613f0e565b9050919050565b600060208201905081810360008301526146ab81613f31565b9050919050565b600060208201905081810360008301526146cb81613f54565b9050919050565b600060208201905081810360008301526146eb81613f77565b9050919050565b6000602082019050818103600083015261470b81613f9a565b9050919050565b6000602082019050818103600083015261472b81613fe0565b9050919050565b6000602082019050818103600083015261474b81614003565b9050919050565b6000602082019050818103600083015261476b81614026565b9050919050565b6000602082019050818103600083015261478b81614049565b9050919050565b600060208201905081810360008301526147ab8161406c565b9050919050565b600060208201905081810360008301526147cb8161408f565b9050919050565b600060208201905081810360008301526147eb816140b2565b9050919050565b6000602082019050818103600083015261480b816140d5565b9050919050565b6000602082019050818103600083015261482b816140f8565b9050919050565b6000602082019050818103600083015261484b8161411b565b9050919050565b6000602082019050818103600083015261486b8161413e565b9050919050565b6000602082019050818103600083015261488b81614161565b9050919050565b600060208201905081810360008301526148ab81614184565b9050919050565b600060208201905081810360008301526148cb816141a7565b9050919050565b600060208201905081810360008301526148eb816141ca565b9050919050565b6000602082019050818103600083015261490b816141ed565b9050919050565b6000602082019050818103600083015261492b81614210565b9050919050565b6000602082019050818103600083015261494b81614233565b9050919050565b600060c08201905061496760008301846142d1565b92915050565b60006020820190508181036000830152614987818461434c565b905092915050565b60006020820190506149a460008301846143c5565b92915050565b60006020820190506149bf60008301846143eb565b92915050565b60006149cf6149e0565b90506149db8282614c10565b919050565b6000604051905090565b600067ffffffffffffffff821115614a0557614a04614d20565b5b614a0e82614d4f565b9050602081019050919050565b600067ffffffffffffffff821115614a3657614a35614d20565b5b614a3f82614d4f565b9050602081019050919050565b6000819050602082019050919050565b600081519050919050565b600081519050919050565b6000602082019050919050565b600082825260208201905092915050565b600082825260208201905092915050565b600082825260208201905092915050565b600081905092915050565b6000614ac882614b5b565b9150614ad383614b5b565b9250827fffffffffffffffffffffffffffffffffffffffffffffffffffffffffffffffff03821115614b0857614b07614cc2565b5b828201905092915050565b6000614b1e82614b3b565b9050919050565b60008115159050919050565b6000819050919050565b600073ffffffffffffffffffffffffffffffffffffffff82169050919050565b6000819050919050565b600060ff82169050919050565b82818337600083830152505050565b60005b83811015614b9f578082015181840152602081019050614b84565b83811115614bae576000848401525b50505050565b6000614bbf82614b5b565b91506000821415614bd357614bd2614cc2565b5b600182039050919050565b60006002820490506001821680614bf657607f821691505b60208210811415614c0a57614c09614cf1565b5b50919050565b614c1982614d4f565b810181811067ffffffffffffffff82111715614c3857614c37614d20565b5b80604052505050565b6000614c4c82614b5b565b91507fffffffffffffffffffffffffffffffffffffffffffffffffffffffffffffffff821415614c7f57614c7e614cc2565b5b600182019050919050565b6000614c9582614ca6565b9050919050565b6000819050919050565b6000614cb182614d60565b9050919050565b6000819050919050565b7f4e487b7100000000000000000000000000000000000000000000000000000000600052601160045260246000fd5b7f4e487b7100000000000000000000000000000000000000000000000000000000600052602260045260246000fd5b7f4e487b7100000000000000000000000000000000000000000000000000000000600052604160045260246000fd5b6000601f19601f8301169050919050565b60008160601b9050919050565b7f45434453413a20696e76616c6964207369676e61747572650000000000000000600082015250565b7f5468726573686f6c64546f6b656e3a205472616e7366657273206f662074686960008201527f7320616d6f756e7420726571756972652073656e64657220766572696669636160208201527f74696f6e00000000000000000000000000000000000000000000000000000000604082015250565b7f45524332303a207472616e7366657220746f20746865207a65726f206164647260008201527f6573730000000000000000000000000000000000000000000000000000000000602082015250565b7f566572696669636174696f6e52656769737472793a205665726966696361746960008201527f6f6e20636f6e6669726d6174696f6e2065787069726564000000000000000000602082015250565b7f45434453413a20696e76616c6964207369676e6174757265206c656e67746800600082015250565b7f4f776e61626c653a206e6577206f776e657220697320746865207a65726f206160008201527f6464726573730000000000000000000000000000000000000000000000000000602082015250565b7f45524332303a20617070726f766520746f20746865207a65726f20616464726560008201527f7373000000000000000000000000000000000000000000000000000000000000602082015250565b7f1901000000000000000000000000000000000000000000000000000000000000600082015250565b7f566572696669636174696f6e52656769737472793a2043616c6c65722069732060008201527f6e6f742061205665726966696572000000000000000000000000000000000000602082015250565b7f45524332303a20696e73756666696369656e7420616c6c6f77616e6365000000600082015250565b7f566572696669636174696f6e52656769737472793a2043616c6c65722069732060008201527f6e6f7420746865207665726966696572206f662074686520766572696669636160208201527f74696f6e00000000000000000000000000000000000000000000000000000000604082015250565b7f45524332303a207472616e7366657220616d6f756e742065786365656473206260008201527f616c616e63650000000000000000000000000000000000000000000000000000602082015250565b7f45434453413a20696e76616c6964207369676e6174757265202773272076616c60008201527f7565000000000000000000000000000000000000000000000000000000000000602082015250565b7f566572696669636174696f6e52656769737472793a205665726966696572204160008201527f6464726573732045786973747300000000000000000000000000000000000000602082015250565b7f566572696669636174696f6e52656769737472793a205665726966696572204160008201527f64647265737320446f6573204e6f742045786973740000000000000000000000602082015250565b7f566572696669636174696f6e52656769737472793a2043616c6c65722069732060008201527f6e6f7420746865207665726966696564207375626a6563740000000000000000602082015250565b7f45434453413a20696e76616c6964207369676e6174757265202776272076616c60008201527f7565000000000000000000000000000000000000000000000000000000000000602082015250565b7f4f776e61626c653a2063616c6c6572206973206e6f7420746865206f776e6572600082015250565b7f566572696669636174696f6e52656769737472793a20556e6b6e6f776e20566560008201527f7269666965722041646472657373000000000000000000000000000000000000602082015250565b7f566572696669636174696f6e52656769737472793a2043616c6c65722069732060008201527f6e6f7420746865207665726966696572206f6620746865207265666572656e6360208201527f6564207265636f72640000000000000000000000000000000000000000000000604082015250565b7f566572696669636174696f6e52656769737472793a205369676e65642064696760008201527f6573742063616e6e6f7420626520766572696669656400000000000000000000602082015250565b7f45524332303a207472616e736665722066726f6d20746865207a65726f20616460008201527f6472657373000000000000000000000000000000000000000000000000000000602082015250565b7f566572696669636174696f6e52656769737472793a2043616c6c65722069732060008201527f6e6f7420746865206f726967696e616c20766572696669657200000000000000602082015250565b7f45524332303a20617070726f76652066726f6d20746865207a65726f2061646460008201527f7265737300000000000000000000000000000000000000000000000000000000602082015250565b7f566572696669636174696f6e52656769737472793a20496e76616c696420616460008201527f6472657373000000000000000000000000000000000000000000000000000000602082015250565b7f45524332303a2064656372656173656420616c6c6f77616e63652062656c6f7760008201527f207a65726f000000000000000000000000000000000000000000000000000000602082015250565b61553081614b13565b811461553b57600080fd5b50565b61554781614b25565b811461555257600080fd5b50565b61555e81614b31565b811461556957600080fd5b50565b61557581614b5b565b811461558057600080fd5b5056fea2646970667358221220d7a66a5e5b38da4ece66684af802a68ca53ee0158c860366f90d5f10d47da53964736f6c63430008040033",
  "linkReferences": {},
  "deployedLinkReferences": {}
}